:020000040800F2
:10000000901900209D0100087963000881430008D1
:10001000695F0008E9190008717E0008000000000F
:1000200000000000000000000000000095690008CA
:10003000FF3300080000000057650008B501000804
:10004000B7010008B7010008B7010008B7010008B0
:10005000B7010008B70100081D3400082F3400085C
:10006000B7010008B701000841340008B7010008D3
:10007000B7010008B7010008B7010008B701000880
:10008000B7010008B7010008B7010008391B0008D4
:10009000FD1A0008B7010008B7010008B701000801
:1000A000B7010008B7010008B7010008B701000850
:1000B000C9710008B7010008B7010008B7010008BE
:1000C000B7010008B7010008B7010008B701000830
:1000D000B7010008A9760008B70100083D780008BC
:1000E000B7010008B7010008B7010008B701000810
:1000F000B7010008B7010008B7010008B701000800
:10010000B7010008B7010008B7010008B7010008EF
:10011000B7010008B701000849720008B7010008DC
:10012000B7010008B7010008B7010008B7010008CF
:10013000B7010008B7010008B7010008951C0008C6
:10014000651C0008B7010008B7010008B7010008E6
:10015000B7010008B7010008B7010008B70100089F
:10016000B7010008B7010008B7010008B70100088F
:10017000B7010008B7010008B7010008B70100087F
:10018000B7010008B7010008DFF80CD001F058FAF9
:100190000048004701940008901900200648804755
:1001A00006480047FEE7FEE7FEE7FEE7FEE7FEE75C
:1001B000FEE7FEE7FEE7FEE725710008890100087B
:1001C00030B5034605E013F8010B80EA0204184835
:1001D000025D0800A1F10101F5D1104630BD70B5F6
:1001E00005460C4600260DB1022C01D8002070BD3A
:1001F000611E77222846FFF7E3FF0646601E285C53
:10020000B04201D10120F2E70020F0E770B50546C9
:100210000C4600260DB1022C00D870BD611E77225D
:100220002846FFF7CDFF0646601E2E5400BFF4E7B8
:10023000F996000830B5034613B94FF6FF7030BD8C
:1002400009E013F8014B82EA0400C0B21F4D35F8F3
:10025000100080EA22220800A1F10101F1D110462C
:10026000EDE770B505460C4600260DB1022C01D80D
:10027000002070BDA11E164802882846FFF7DAFF4D
:100280000646F1B2A01E285C814206D1601E285CA1
:10029000B0EB162F01D10120EBE70020E9E770B5A4
:1002A00005460C4600260DB1022C00D870BDA11EDB
:1002B000074802882846FFF7BDFF0646A01E2E54B9
:1002C000310A601E295400BFF0E70000FA970008C9
:1002D0003406002010B50446FE48007820B10428FA
:1002E0000ED005282FD11CE05A2C07D1FA480470F3
:1002F0000420F84908700120F8490870002010BD5A
:10030000F6480078042802D10520F2490870F34825
:1003100001780078401CF14A1070EF4844540020E6
:10032000EDE70020EB490870EB48EC4909784454AC
:100330000621FFF754FF20B10020E8490870E64885
:10034000DDE70020DBE70020E2490870E3490870A0
:1003500000BFD4E770B505460E46E148007810B1FD
:1003600004286AD141E02846FFF7B4FF0446002C78
:1003700039D00020DB4908702178DA48027800780B
:10038000401CD84B1870D8488154617818460278C0
:100390000078401C1870D4488154A178184602781F
:1003A0000078401C1870D0488154E17818460278D3
:1003B0000078401C1870CC48815421791846027886
:1003C0000078401C1870C84881546279184601783A
:1003D0000078401C1870C44842546078C3490870C3
:1003E0000420BF490870002070BDBE480178007825
:1003F000401CBC4A1070BC484554BC4800780830CA
:1004000011460978884216D10020B5490870B748CE
:10041000007800F10801B448FFF723FF48B1B34862
:10042000007800F10802B049304600F0D5FD012007
:10043000DAE70020D8E70020D6E70020D4E770B53F
:1004400006460C4615465A2028706C700621284630
:10045000FFF7DCFE2246B11DA81D00F0BDFD04F132
:1004600008012846FFF71BFF04F10800C0B270BD69
:1004700000B97047417000BFFBE700B970470171D8
:1004800000BFFBE70146087970470146881D7047A9
:10049000F0B58DB005463421684600F0B6FD6C46D7
:1004A000A61D112060700020A070E07820F00F00E1
:1004B000E070E07820F0F000E0704520207168B234
:1004C0003070280A40B27070280C40B2B070280E0C
:1004D00040B2F07061786A466846FFF7B0FF0746A1
:1004E0001FB13946684607F019F80DB0F0BD2DE987
:1004F000F04F8DB006460F4690469946DDF858B04D
:100500003421684600F081FD6C46A51D0C2060700A
:100510000020A070E07820F00F00E070E07820F07C
:10052000F000E0704120207130B2688038B228803D
:100530000FFA88F0A8800FFA89F028810FFA8BF063
:10054000E880179800B2688161786A466846FFF7CC
:1005500076FF8246BAF1000F03D05146684606F096
:10056000DDFF0DB0BDE8F08F2DE9F04F8DB00646F0
:100570000F4690469946DDF858B03421684600F0A1
:1005800044FD6D46AC1D122068700020A870E8780C
:1005900020F00F00E870E87820F0F000E8704020CC
:1005A000287130B2208038B260800FFA88F0A080C5
:1005B0000FFA89F0E0800FFA8BF02081179800B2D3
:1005C0006081189800B2A081199800B2E0811A9851
:1005D00000B2208269786A466846FFF730FF82469B
:1005E000BAF1000F03D05146684606F097FF0DB0F0
:1005F000BDE8F08F2DE9F04F8DB006460F469046CE
:100600009946DDF858B03421684600F0FEFC6C468F
:10061000A51D0C2060700020A070E07820F00F0075
:10062000E070E07820F0F000E0704220207130B2FD
:10063000288038B268800FFA88F0A8800FFA89F015
:10064000E8800FFA8BF02881179800B268816178F2
:100650006A466846FFF7F3FE8246BAF1000F03D000
:100660005146684606F05AFF0DB0BDE8F08F2DE9FF
:10067000F04F8DB006460F4690469946DDF858B0CB
:100680003421684600F0C1FC6D46AC1D1120687035
:100690000020A870E87820F00F00E870E87820F0DB
:1006A000F000E87044202871641C04F8016C38B232
:1006B00020800FFA88F060800FFA89F0A0800FFA8E
:1006C0008BF0E080179800B22081189800B260810A
:1006D0001A980DE0360600207F0C00203706002017
:1006E0003A06002039060020890C00203806002038
:1006F00000B2E081199800B2A081641E69786A4650
:100700006846FFF79CFE8246BAF1000F03D05146BF
:10071000684606F003FF0DB0BDE8F08F2DE9F0410B
:100720008EB005460E46342101A800F06EFC01ACE7
:100730000DF10A08112060700020A070E07820F010
:100740000F00E070E07820F0F000E07025710020EC
:1007500088F8000088F80160617801AA01A8FFF715
:100760006EFE07461FB1394601A806F0D7FE0EB04F
:10077000BDE8F081704770B52DED0C8B8EB0B0EEFA
:10078000408AF0EE608AB0EE419AF0EE619AB0EEE7
:1007900042AAF0EE62AAB0EE43BAF0EE63BAB0EE4F
:1007A00044CAF0EE64CAB0EE45DAF0EE65DA342100
:1007B00001A800F02AFC01ADAC1D182068700020D3
:1007C000A870E87820F00F00E870E87820F0F000DA
:1007D000E87048202871BDEEC80A10EE100A00B279
:1007E0002080BDEEE80A10EE100A00B26080BDEE77
:1007F000C90A10EE100A00B2A080BDEEE90A10EEA0
:10080000100A00B2E080BDEECA0A10EE100A00B273
:100810002081BDEEEA0A10EE100A00B26081BDEE42
:10082000CB0A10EE100A00B2A081BDEEEB0A10EE6A
:10083000100A00B2E081BDEECC0A10EE100A00B240
:100840002082BDEEEC0A10EE100A00B26082BDEE0E
:10085000CD0A10EE100A00B2A082BDEEED0A10EE35
:10086000100A00B2E082697801AA01A8FFF7E7FD4B
:1008700006461EB1314601A806F050FE0EB0BDEC92
:100880000C8B70BD10B5044600BF00BF00BF00BF99
:10089000002CFDD000BF00BF00BF0029FDD000BF6D
:1008A00000BF00BF002AFDD000BF00BF00BF002B6B
:1008B000FDD000BF72B6216002FB0310401E6060D5
:1008C000A3600020E06022746161A16162B6002033
:1008D00010BD2DE9F04104460D460026002700BF5B
:1008E00000BF002CFDD000BF00BF00BF002DFDD019
:1008F00000BF1C2008F0B4FD064616B90020BDE874
:10090000F08104FB05F008F0ABFD07460FB90020AD
:10091000F5E72B46224639463046FFF7B3FF30460F
:10092000EDE710B5044600BF00BF002CFDD000BFAE
:1009300000BF00BF20680028FCD000BF206808F07E
:1009400019FD204608F016FD10BD034600BF00BF8C
:1009500000BF00BF002BFDD000BF00BF00BF0029BB
:10096000FDD000BF00BF00BF002AFDD000BF72B69F
:1009700019608818401E58609A600020D86019617C
:10098000596162B60020704770B504460025002604
:1009900000BF00BF002CFDD000BF182008F060FD94
:1009A00005460DB9002070BD204608F059FD0646E9
:1009B0000EB90020F7E7224631462846FFF7C5FF6B
:1009C0002846F0E710B5044600BF00BF002CFDD05C
:1009D00000BF00BF00BF20680028FCD000BF206817
:1009E00008F0C8FC204608F0C5FC10BD30B5024632
:1009F00000230C4600BF00BF00BF00BF002AFDD08F
:100A000000BF00BF00BF0029FDD000BF906810B933
:100A10004FF0FF3030BD002310E055689069A842C8
:100A200001D91068906114F8010B9569287072B6AD
:100A30009069401C906162B6581CC3B2107C984209
:100A4000EBDC72B69068401E9060D068401CD060AD
:100A500062B60020DEE7024600BF00BF00BF00BF55
:100A6000002AFDD000BF906810B94FF0FF307047EA
:100A700072B650695368984201D910685061506944
:100A800001705069401C50619068401E9060D068B1
:100A9000401CD06062B60020E9E770B503460C4602
:100AA000002500BF00BF00BF00BF002BFDD000BF6E
:100AB000986810B94FF0FF3070BD002119E09868B8
:100AC00010B94FF0FF3516E072B65E685869B04253
:100AD00001D918685861605C5E6930705869401CC3
:100AE00058619868401E9860D868401CD86062B60B
:100AF000491C9142E3D300BF2846DDE730B50246EA
:100B000000230C4600BF00BF00BF00BF002AFDD07D
:100B100000BF00BF00BF0029FDD000BFD06810B9E2
:100B20004FF0FF3030BD002310E055685069A842F7
:100B300001D9106850615069007804F8010B72B651
:100B40005069401C506162B6581CC3B2107C984278
:100B5000EBDC72B69068401C9060D068401ED0609C
:100B600062B60020DEE70146002000BF00BF00BFE4
:100B700000BF0029FDD000BF72B60A694B689A42D7
:100B800001D90A680A610A6910780A69521C0A6167
:100B90008A68521C8A60CA68521ECA6062B6704770
:100BA00070B5024600230C4600BF00BF00BF00BF67
:100BB000002AFDD000BF00BF00BF0029FDD000BF4C
:100BC000D06810B94FF0FF3070BD72B6167CD06897
:100BD000401E556906FB00501568451BD2E90060B0
:100BE000801B401CB5FBF0F600FB1650156828442E
:100BF0005061D2E90250401E284490600120D0602C
:100C000062B6002310E055685069A84201D9106807
:100C100050615069007804F8010B72B65069401CAD
:100C2000506162B6581CC3B2107C9842EBDC72B6BD
:100C30009068401C9060D068401ED06062B6002072
:100C4000C2E710B50146002000BF00BF00BF00BFD3
:100C50000029FDD000BF72B6D1E903321A44521EFA
:100C60000B68D31AD1E90042121B521CB3FBF2F4F9
:100C700002FB14320B681A440A610A691078D1E940
:100C800002231A448A600022CA6062B610BD70B5A1
:100C900003460C46154600222E46002100BF00BF29
:100CA000002BFDD000BF00BF00BF002DFDD000BF56
:100CB000D868A04202D84FF0FF3070BD59690022B9
:100CC00006E05868884200D21968491C501CC2B21C
:100CD000187C60439042F4DC002209E058688842A6
:100CE00000D21968087806F8010B491C501CC2B2E2
:100CF000187C9042F2DC0020DFE710B502460B467C
:100D00000024002100BF00BF002AFDD000BF1169F0
:100D1000002406E05068884200D21168491C601C1B
:100D2000C4B29C42F6DB087810BD014600BF00BF8C
:100D30000029FDD000BFC86808B901207047002015
:100D4000FCE7014600BF00BF0029FDD000BFC86816
:100D500008B9012070470020FCE7014600BF00BF32
:100D60000029FDD000BF886808B901207047002025
:100D7000FCE7014600BF00BF0029FDD000BF886826
:100D800008B9012070470020FCE7014600BF00BF02
:100D90000029FDD000BFC8687047014600BF00BFF2
:100DA0000029FDD000BFC8687047014600BF00BFE2
:100DB0000029FDD000BF88687047014600BF00BF12
:100DC0000029FDD000BF88687047014600BF00BF02
:100DD00000BF00BF0029FDD000BF72B6D1E90020DE
:100DE000801A0A7C90FBF2F088600020C8600868D6
:100DF00048610868886162B600207047014600BFFC
:100E000000BF00BF00BF0029FDD000BF72B6D1E90E
:100E10000020801A88600020C8600868086108689F
:100E2000486162B60020704700220260416070474E
:100E30004168002902DC9FED170A70470268511CC7
:100E4000016041688A4201DB41680160016800EE8F
:100E5000101AF8EEC00A416800EE101AB8EEC01A77
:100E600080EE810A10EE101A8160816800EE101A7F
:100E7000E3E70160704700210160704741607047FF
:100E8000014608684A68904201DB01207047002053
:100E9000FCE700000000000008B10021016070477D
:100EA00010B102680A440260704702468A4201D3C8
:100EB000012070470020FCE79FED460A80ED000A04
:100EC0009FED440A80ED010A9FED420A80ED070A7A
:100ED0009FED400A80ED080A9FED3E0A80ED090A69
:100EE0009FED3C0A80ED0D0A704790ED030A80EDFE
:100EF000020A90ED000AD0ED010A30EE600A80EDA2
:100F0000030A90ED040AD0ED030A20EE200A80EDDA
:100F1000070A90ED080AD0ED050A90ED031A00EEDD
:100F2000810A80ED080A90ED030AD0ED020A30EE46
:100F3000600AD0ED060A20EE200A80ED090A90ED45
:100F4000080AD0ED0B0AF1EE600AB4EEE00AF1EE09
:100F500010FA06D890ED0B0AB1EE400A80ED080AAF
:100F60000CE090ED080AD0ED0B0AB4EEE00AF1EEC9
:100F700010FA03DB90ED0B0A80ED080A90ED070AEA
:100F8000D0ED080A30EE200AD0ED090A30EE200A32
:100F900080ED0D0A90ED0D0AD0ED0E0AF1EE600A1B
:100FA000B4EEE00AF1EE10FA06D890ED0E0AB1EEBA
:100FB000400A80ED0D0A0CE090ED0D0AD0ED0E0A0E
:100FC000B4EEE00AF1EE10FA03DB90ED0E0A80EDCC
:100FD0000D0A70470000000040EA01039B0703D0A0
:100FE00009E008C9121F08C0042AFAD203E011F868
:100FF000013B00F8013B521EF9D27047D2B201E02A
:1010000000F8012B491EFBD270470022F6E710B50D
:1010100013460A4604461946FFF7F0FF204610BD66
:101020002DE9FE4F804681EA0300C00F0C46009078
:1010300021F0004123F00045B8EB0200A94105D2A0
:101040004046214690461C460B46024623F000408F
:10105000104347D0270DC7F30A00C3F30A5102908B
:10106000401A019040286BDAC3F3130040F4801B50
:101070000098924620B10023D2EB030A63EB0B0BDE
:1010800001985946C0F14002504600F0C3F90646A7
:101090000D4650465946019A00F0DBF910EB080066
:1010A0006141002487EA115284EAE7731A4340D071
:1010B000009A62B3019A012A4FEA075215DC001B1D
:1010C00061EB02014FF0004202EA0752CDE9004213
:1010D000001C41F5801132462B4600F012FA03B095
:1010E000BDE8F08F40462146F9E7001B61EB0201A5
:1010F000001C41F5801300185B412018A2F5001771
:1011000047EB030140EAD570B6196D4111E06D0857
:101110004FEA360645EAC0754FEA0752001B61EBFD
:101120000201001C41F5801149084FEA3000001906
:10113000514132462B4603B0BDE8F04F00F0D2B922
:101140000098012240000023D0EB020263EBE07321
:10115000009821464FEAE074B8EB000061EB04010F
:10116000E9E783F000435BE781F0004158E72DE9B0
:10117000FE4F81EA030404F0004421F00041009492
:101180004FF0000B23F0004350EA01045ED052EA16
:1011900003045BD0C3F30A54C1F30A552C44A4F2F0
:1011A000F3340194A0FB0254C1F3130141F4801104
:1011B000C3F3130343F4801301FB024400FB034E0B
:1011C000840A970A44EA815447EA8357A4FB0768D4
:1011D00002958D0A05FB07854FEA932C04FB0C54FE
:1011E0002705029D4FEA065847EA1637B5EB080572
:1011F0006EEB070C870E920E47EA811742EA8312C4
:10120000A7FB0201B6EB0B0164EB00042B0D43EAD4
:101210000C335E1844EB1C50DA465146E7FB0201E2
:10122000C5F313044FEA0B3343EA14534FEA043275
:10123000019C43EA0603A4F10C040294009CCDE94E
:1012400000B400F05EF903B0BDE8F08F0020014665
:10125000F9E72DE9F04D81EA030404F0004B21F099
:10126000004514464FF0000A23F0004150EA050201
:1012700020D054EA01021DD0C5F30A570246C5F337
:101280001303C1F31300C1F30A5640F4801543F46D
:101290008013A7EB0608101BD64608F2FD3873EB47
:1012A000050002D308F1010801E092185B41B8F192
:1012B000000F03DA00200146BDE8F08D00204FF456
:1012C0008011064684460EE0171B73EB050705D315
:1012D000121B63EB050306434CEA010C49084FEA75
:1012E000300092185B4150EA0107EDD152EA030049
:1012F00012D082EA040083EA0501084305D0101BDE
:10130000AB4106D20122002306E000224FF0004349
:1013100002E06FF0010253101AEB06004CEB08518B
:1013200010EB0A0041EB0B01BDE8F04D00F0DAB81C
:101330000EB5C10F80EAE0700844CA07002140F2F0
:1013400033438DE80E000A460B4600F0DAF803B08E
:1013500000BDC1F30A5210B5C1F3130140F2FF33CF
:1013600041F480119A4201DA002010BD40F233436B
:101370009A42A2F2334203DC524200F05AF810BD06
:10138000904010BD00F0004230F000400AD0C10D86
:1013900001F56071C0F3160042EA0151C20840072E
:1013A00011437047002001467047000030B5041E0D
:1013B00071F1000404DB4FF00044404264EB010192
:1013C000141E73F1000405DB1C464FF0004352422B
:1013D00063EB0403994208BF904230BD01F0004323
:1013E00030B421F0004150EA010206D00A0DA2F506
:1013F0006072C1F31301002A02DC30BC0020704788
:10140000440F44EAC104C100E01830BC00EBC250F4
:1014100000F031B8202A04DB203A00FA02F1002063
:1014200070479140C2F1200320FA03F31943904022
:101430007047202A04DB203A21FA02F0002170478D
:1014400021FA02F3D040C2F120029140084319462C
:101450007047202A06DBCB17203A41FA02F043EA14
:10146000E07306E041FA02F3D040C2F1200291405D
:101470000843194670470029A8BF7047401C49001F
:1014800008BF20F00100704710B4B0FA80FC00FAE9
:101490000CF050EA010404BF10BC704749B1CCF114
:1014A000200421FA04F411FA0CF118BF01212143A0
:1014B0000843A3EB0C01CB1D4FEA00614FEA10205B
:1014C00042BF002010BC704700EBC35010440029FD
:1014D000A4BF10BC7047401C490008BF20F00100A9
:1014E00010BC704710B5141E73F1000408DA401CDC
:1014F00041F1000192185B411A4301D120F0010033
:1015000010BD2DE9F04D92469B4611B1B1FA81F222
:1015100002E0B0FA80F220329046FFF77BFF0446EB
:101520000F4640EA0A0041EA0B0153465A46084377
:1015300013D0114653EA010019D0C8F140025046B9
:10154000FFF777FF05460E46504659464246FFF7DD
:1015500061FF084305D0012004E020463946BDE87C
:10156000F08D0020054346EAE0762C4337430A9885
:101570006305E40AA0EB08000022FD0A44EA475490
:101580000A3002D500200146E9E70105101969413A
:10159000DDE9084500196941BDE8F04DA2E72DE9F4
:1015A000F04D00231A461B1A8A4103DB0020014636
:1015B000BDE8F08DC1F30A52C1F3130141F4801567
:1015C0004FF0000BD10702D100186D41521E0027C9
:1015D000044640F2FF11384601EB620A3E4680465F
:1015E000024600204FF48011FFF723FFC21971411A
:1015F000BB1846EB0100B4EB030C75EB000C04D3F5
:10160000E41A65EB000517460E46241908F101009F
:101610006D4180463428E3DDF91946EB0600091BCD
:10162000A84103D24FF0FF32134601E000221346D7
:101630001BEB070046EB0A51BDE8F04DFFF752BF28
:10164000064C074D06E0E06840F0010394E807000F
:1016500098471034AC42F6D3FEF79AFD109C000870
:10166000309C00080EB540F2334102910021CDE9D3
:1016700000110A460B46FFF744FF03B000BD70B5EA
:10168000C1F30A5201F000450024C1F3130140F2F6
:10169000FF3341F480119A4201DA002070BD40F21C
:1016A00033439A42A2F2334203DC5242FFF7C1FEB7
:1016B00000E090402C43F1D0404270BD70B58C18D2
:1016C00010F8015B15F0070301D110F8013B2A1156
:1016D00006D110F8012B03E010F8016B01F8016B43
:1016E0005B1EF9D12B0705D40023521E0DD401F83F
:1016F000013BFAE710F8013BCB1A921C03E013F808
:10170000015B01F8015B521EF9D5A142D8D300203C
:1017100070BD000000B597B05822434901A8FFF7FB
:101720005BFC9DF804005A2810D19DF80D005A2842
:101730000CD19DF814005A2808D101203B490870AB
:10174000572201A93A48FFF747FC07E00020374934
:1017500008703749C1F801005A2008703448407AAF
:101760005A2808D0002132484172A0F80710002002
:101770002F49A1F805002E48007C5A2809D00021E5
:101780002B48017400202A49488100212848818182
:10179000C181274890F823005A2820D000212448EE
:1017A00080F8231000202249A1F8110000212048D0
:1017B000A0F81310A0F81510B7EE000A10EE100AEA
:1017C0001B49C1F81700B7EE000A10EE100AC1F865
:1017D0001B00B7EE000A10EE100AC1F81F001448F3
:1017E00090F836005A281DD00021114880F8361094
:1017F00000200F49888400210D48C1840185B7EE7F
:10180000000A10EE100A0A49C1F82A00B7EE000AD1
:1018100010EE100AC1F82E00B7EE000A10EE100A02
:10182000C1F8320017B000BD00000E0840010020D2
:10183000E609002010B5012457220349034800F0AF
:1018400057F80446204610BDE609002000000E08A7
:1018500001461C48814201D2002070471A4881424B
:1018600001D20820F9E71948814201D21020F4E79B
:101870001748814201D21820EFE71648814201D271
:101880002020EAE71448814201D22820E5E71348E6
:10189000814201D23020E0E71148814201D2382054
:1018A000DBE71048814201D24020D6E70E48814252
:1018B00001D24820D1E70D48814201D25020CCE727
:1018C0005820CAE7004000080080000800C0000857
:1018D00000000108000002080000040800000608DB
:1018E0000000080800000A0800000C0800000E08AC
:1018F0002DE9FC5F04460D4690464FF00809012093
:10190000019000264FF0000A00274FF0000B002046
:101910000090B4F1006F01D2BDE8FC9F01F03AFFE6
:10192000002001F08DFE264604EB080A3046FFF742
:101930008FFF83465046FFF78BFF00901648864284
:1019400011D25F460BE00221384601F08BFE814642
:10195000B9F1080F02D00020019003E00837009889
:101960008742F0D900BFB9F1080F0ED10AE02978FB
:10197000204601F0E9FE082802D00020019003E093
:10198000641C6D1C5445F2D300BF012001F058FEC9
:1019900001F0D0FE0198BFE70000FF1F10B54FF423
:1019A000A06004F027FD04F03DFD03F011FF03F0FB
:1019B000F1FE05F0EBFB04F027F905F01FFC04F045
:1019C000CBFD00F013F800F0C5F8064805F0C0FDA7
:1019D00005F0D2FE05F04CFC04F020F904F012F8FA
:1019E00010BD0000A086010000BFFEE700B58BB06F
:1019F0000121084604F0E4FD0121480604F0F0FD51
:101A000009220B213B4801F0DFFF09220C21394854
:101A100001F0DAFF4FF4C050029002208DF80C0064
:101A200002A9344801F088FF14208DF80400022038
:101A30008DF8050001208DF806008DF8070001A83B
:101A400004F09CFC13208DF8040001208DF80500A3
:101A50008DF806008DF8070001A804F08FFC2648D9
:101A600000F096F908A800F0CEFB00208DF82600C3
:101A70008DF827008DF828008DF829008DF82A00B0
:101A800001208DF82B0000208DF822008DF8230016
:101A900008208DF8240003208DF82500ADF82000E3
:101AA00008A9154800F0ADFA00208DF81A008DF84D
:101AB0001B0001208DF81C000020ADF81000ADF8CF
:101AC0001200ADF81400ADF81600ADF818000120B2
:101AD0008DF81D0004A800F077F9012202210648C4
:101AE00000F086FA01221146034800F081FA0BB09B
:101AF00000BD0000000002400064004000B585B059
:101B000002210B4800F0E4F978B10421084800F004
:101B1000EBF80849064800F0CBF86A460021044873
:101B200000F0F9FA684601F009F905B000BD0000BF
:101B3000006400400800003210B50121044800F0A4
:101B4000C7F918B10121024800F0CEF810BD00001D
:101B50000064004000B58BB00121022004F030FD8C
:101B60000121880604F03CFD09220C213B4801F0CC
:101B70002BFF09220D21394801F026FF4FF4405078
:101B8000029002208DF80C0002A9344801F0D4FE26
:101B900040208DF8040001208DF805008DF8060026
:101BA0008DF8070001A804F0E9FB3F208DF8040040
:101BB00000208DF8050001208DF806008DF8070043
:101BC00001A804F0DBFB264800F0E2F808A800F0CA
:101BD0001AFB00208DF826008DF827008DF82800CC
:101BE0008DF829008DF82A0001208DF82B000020A7
:101BF0008DF822008DF8230008208DF824000320A2
:101C00008DF82500ADF8200008A9154800F0F9F975
:101C10000E208DF81A0000208DF81B0001208DF891
:101C20001C000020ADF81000ADF81200ADF8140053
:101C3000ADF81600ADF8180001208DF81D0004A8BD
:101C400000F0C2F801220221054800F0D1F901227A
:101C50001146034800F0CCF90BB000BD000402406F
:101C60000068004000B585B00221094800F030F955
:101C700058B10221064800F037F86A4600210448AE
:101C800000F049FA684601F059F805B000BD0000BF
:101C90000068004010B50121044800F019F918B19E
:101CA0000121024800F020F810BD0000006800404B
:101CB00000220C4B994202D10023836111E0C1F351
:101CC000130201F000730BB1C2600AE001F08063FF
:101CD0000BB1026105E001F000630BB1826000E02E
:101CE000426070477000F030B1F5007F3AD00FDCF1
:101CF000202928D006DC01291CD004291DD0082960
:101D000040D11DE0402921D0B1F5807F3AD126E0B5
:101D1000B1F5004F31D006DCB1F5806F25D0B1F5BB
:101D2000006F2FD124E0B1F5803F12D0B1F5003F14
:101D300028D111E0154A826025E00822C26022E025
:101D40001022C2601FE0082202611CE01022026122
:101D500019E00822426016E01022426013E00422DB
:101D6000426010E0042242600DE0042242600AE07A
:101D7000002282610422426005E000228261042286
:101D8000426000E000BF00BF704700000101010099
:101D900010B504460B48844209D10121480604F0DD
:101DA0002FFC00214FF0007004F02AFC08E0012114
:101DB000880604F025FC00214FF0806004F020FC30
:101DC00010BD00000064004010B50021837A01229C
:101DD00002FA03F13D4A126842F001023B4B1A60DD
:101DE0003A4A1C3212688A43384B1C331A60027B11
:101DF000CAB9364A0C3212688A43344B0C331A6023
:101E00004288C38842EA0343304A4032847A42F827
:101E100034300288838842EA03432C4A4032847A71
:101E200002EBC4025360027B012A19D1274A0C320B
:101E300012680A43254B0C331A604288038842EA31
:101E40000343224A4032847A42F83430C28883887D
:101E500042EA03431D4A4032847A02EBC4025360D3
:101E6000C27A3AB9194A121D12688A43174B1B1DD0
:101E70001A6006E0154A121D12680A43134B1B1D17
:101E80001A60028932B9114A143212688A430F4B20
:101E900014331A600289012A06D10C4A14321268DE
:101EA0000A430A4B14331A60427B012A06D1074ABF
:101EB0001C3212680A43054B1C331A60034A12682D
:101EC00022F00102014B1A6010BD000000660040C4
:101ED00070B504460D46002660692840002871D080
:101EE000B5F5807F5CD010DC082D35D006DC012DE7
:101EF00020D0022D24D0042D72D127E0102D31D016
:101F0000202D35D0402D6BD138E0B5F5004F60D095
:101F100009DCB5F5007F49D0B5F5806F4CD0B5F53B
:101F2000006F5DD14FE0B5F5803F2DD0B5F5003F96
:101F300056D12FE0A0682D4900F0FCFF064651E085
:101F4000E068032100F0F6FF06464BE0E068082158
:101F500000F0F0FF064645E0E068102100F0EAFFDF
:101F600006463FE02069032100F0E4FF064639E021
:101F70002069082100F0DEFF064633E020691021C9
:101F800000F0D8FF06462DE06068082100F0D2FF7F
:101F9000064627E06068102100F0CCFF064621E0ED
:101FA000A069012100F0C6FF06461BE0A0690221DE
:101FB00000F0C0FF064615E0A069042100F0BAFF5A
:101FC00006460FE00FE0A069702100F0B3FF06465F
:101FD00008E06068042100F0ADFF064602E0FFE77C
:101FE000002600BF00E00026304670BD0101010060
:101FF0001AB143690B43436102E043698B43436178
:10200000704730B5024600200023146824F0020413
:102010001460146844F00104146000E05B1C546810
:1020200004F001041CB94FF6FF74A342F6D15468C2
:1020300004F001040CB900206CE08C79012C04D16F
:10204000146844F08004146003E0146824F08004F1
:102050001460CC79012C04D1146844F0400414605D
:1020600003E0146824F0400414600C7A012C04D1BD
:10207000146844F02004146003E0146824F0200481
:1020800014604C7A012C04D1146844F010041460DC
:1020900003E0146824F0100414608C7A012C04D13D
:1020A000146844F00804146003E0146824F0080481
:1020B0001460CC7A012C04D1146844F00404146038
:1020C00003E0146824F0040414608C78A407CD782D
:1020D00044EA05640D7944EA05444D7944EA05541F
:1020E0000D886D1E2C43D461146824F00104146023
:1020F000002300E05B1C546804F001041CB14FF69F
:10210000FF74A342F6D1546804F001040CB100201E
:1021100000E0012030BD10B500F5D87303EB0113CA
:102120001B6803F004031372137A53B900F5D873D4
:1021300003EB01131B6840F2FF7404EA535313606E
:1021400009E000F5D87303EB01131B686FF06044DE
:1021500004EAD303536000F5D87303EB01131B6843
:1021600003F00203537200F5D87303EB01135B68AD
:1021700003F00F03937200F5D87303EB01135B6850
:102180001B0AD37400F5D87303EB01139B68D37259
:1021900000F5D87303EB01139B681C0A147300F558
:1021A000D87303EB01139B681C0C547300F5D873B0
:1021B00003EB01139B681B0E937300F5D87303EBBD
:1021C0000113DB68D37300F5D87303EB0113DB68ED
:1021D0001C0A147400F5D87303EB0113DB681C0CA4
:1021E000547400F5D87303EB0113DB681B0E937472
:1021F00021B9C36843F02003C36003E0036943F0DF
:102200002003036110BD00218171C171017241720F
:102210008172C1728170C17003210171022141710B
:1022200001210180704710B502460020936803F039
:102230008063B3F1806F00D110E0936803F0006316
:10224000B3F1006F01D1012008E0936803F08053DF
:10225000B3F1805F01D1022000E00420042874D093
:1022600002F5C07303EB00131B6803F0010402F5D1
:10227000C07303EB00131C600B7A7BB94B7A0C889C
:1022800043EA445302F5C07404EB0014246823436A
:1022900002F5C07404EB0014236010E00B7A4C6864
:1022A00043EAC4034C7A234302F5C07404EB0014E0
:1022B0002468234302F5C07404EB001423608B7A76
:1022C00003F00F038B7202F5C07303EB00135B681E
:1022D00023F00F0402F5C07303EB00135C6002F5FA
:1022E000C07303EB00135B688C7A234302F5C07460
:1022F00004EB001463608B7B1C064B7B44EA0344B5
:102300000B7B44EA0323CC7A234302F5C07404EB2D
:102310000014A3608B7C1C064B7C44EA03440B7CBA
:1023200044EA0323CC7B234302F5C07404EB00147E
:10233000E36002F5C07303EB00131B6843F0010474
:1023400002F5C07303EB00131C6010BD10B52DED3A
:10235000108B82B001F0ACFC18B90020FE498880D7
:1023600075E0FE480078022819D0032856D19FED69
:10237000FC0AFC4880ED000AFB4890ED100AF94881
:1023800080ED010A816C8847F64890ED0D0ABDEE9C
:10239000C00A10EE100A00B2EF49888056E0F148FA
:1023A00090ED000AB5EEC00AF1EE10FA08D19FEDEB
:1023B000EF0A80ED000AEE480068EE4908601AE076
:1023C000EB480068EB490968401A00EE100AB8EEC5
:1023D000400ADFEDE90AB4EEE00AF1EE10FA0ADD98
:1023E000E04890ED000AB1EE400A80ED000AE048B6
:1023F0000068E0490860DC4890ED100AD94880ED9B
:10240000010A816C8847D74890ED0D0ABDEEC00ADD
:1024100010EE100A00B2D049888017E09FEDD70A6D
:10242000D04880ED000AD04890ED100ACD4880EDEC
:10243000010A816C8847CB4890ED0D0ABDEEC00AB9
:1024400010EE100A00B2C449888000BF00BF01200E
:1024500003F01EF918B10020BF4908804880BE482B
:10246000B0F900004042BC49B1F902100844BA4931
:10247000B1F90410084400EE100AB8EEC00AC048D2
:1024800080ED000AB448B0F90000B349B1F9021078
:102490000844B149B1F90410084400EE100AB8EE3E
:1024A000C00AB74880ED010AAB48B0F90000AA495C
:1024B000B1F90210401AA849B1F90410084400EE1D
:1024C000100AB8EEC00AAE4880ED020AA248B0F980
:1024D00000004042A049B1F90210401A9E49B1F9EA
:1024E0000410084400EE100AB8EEC00AA44880EDBB
:1024F000030A9A48007802287DD09848007803287B
:10250000FAD09F4890ED000A10EE101A0846FEF728
:1025100039FF41EC190BB0EE490AF0EE690A06F0FA
:10252000F3F9B0EE408AF0EE608A9FED960B53EC23
:10253000102B51EC180BFEF739FF56D3904890ED55
:10254000010A10EE101A0846FEF71CFF41EC190BA9
:10255000B0EE490AF0EE690A06F0D6F9B0EE408A0C
:10256000F0EE608A9FED870B53EC102B51EC180BAB
:10257000FEF71CFF39D3824890ED020A10EE101AC4
:102580000846FEF7FFFE41EC190BB0EE490AF0EEEB
:10259000690A06F0B9F9B0EE408AF0EE608A9FED64
:1025A000790B53EC102B51EC180BFEF7FFFE1CD3EC
:1025B000734890ED030A10EE101A0846FEF7E2FE8B
:1025C00041EC190BB0EE490AF0EE690A06F09CF9ED
:1025D000B0EE408AF0EE608A9FED6A0B53EC102B50
:1025E00051EC180BFEF7E2FE6BD25B48B0F9040029
:1025F00000EE900A00E064E0F8EEE00AB0EE600A57
:102600005F48D0ED000A9FED611AF4EEC10AF1EEC9
:1026100010FA06DDD0ED000A70EEC00AC0ED000A27
:1026200006E05748D0ED000A70EE800AC0ED000ABF
:102630005348D0ED010A9FED551AF4EEC10AF1EEB0
:1026400010FA06DDD0ED010A70EEC00AC0ED010AF5
:1026500006E04B48D0ED010A70EE800AC0ED010A99
:102660004748D0ED020A9FED491AF4EEC10AF1EE97
:1026700010FA06DDD0ED020A70EEC00AC0ED020AC3
:1026800006E03F48D0ED020A70EE800AC0ED020A73
:102690003B48D0ED030A9FED3D1AF4EEC10AF1EE7E
:1026A00010FA06DDD0ED030A70EEC00AC0ED030A91
:1026B00006E03348D0ED030A70EE800AC0ED030A4D
:1026C00000BF2F4890ED000A314880ED000A2C48E9
:1026D00090ED010A2F4880ED000A294890ED020A8A
:1026E0002D4880ED000A264890ED030A2B4880ED26
:1026F000000A2B48C06B00EE100AB8EEC00A24484E
:1027000080ED010A2748C06B00EE100AB8EEC00A3F
:10271000204880ED010A2448C06B00EE100AB8EE94
:10272000C00A1D4880ED010A2048C06B00EE100A67
:10273000B8EEC00A194880ED010A1548816C884737
:102740001448816C88471448816C88471348816C11
:1027500088470F482CE00000640500206E0500202B
:10276000000034C2BC020020E00B00200000344214
:10277000380500203C050020ABAA264400000000DC
:10278000780A002000000000000089400000484452
:102790000C0300205C030020AC030020FC0300209D
:1027A000D00A0020140B0020580B00209C0B0020A6
:1027B00090ED0D0AFE48D0ED000A30EE600A5FEDA4
:1027C0000D0AB4EEE00AF1EE10FA0EDCF94890EDD5
:1027D0000D0AF748D0ED000A30EE600ADFEDF60A88
:1027E000B4EEE00AF1EE10FA22D2F24890ED0D0AB2
:1027F000EF48D0ED000A30EE600A5FED1C0AB4EE3F
:10280000E00AF1EE10FA09DD90ED000A5FED210A11
:1028100030EE200AE74880ED0D0A09E0E44890ED2B
:10282000000A5FED260A30EE600AE24880ED0D0AEC
:10283000E24890ED0D0AE248D0ED000A30EE600A61
:102840005FED2E0AB4EEE00AF1EE10FA0EDCDB4882
:1028500090ED0D0ADA48D0ED000A30EE600ADFEDA7
:10286000D60AB4EEE00AF1EE10FA22D2D34890ED87
:102870000D0AD348D0ED000A30EE600A5FED3D0A44
:10288000B4EEE00AF1EE10FA09DD90ED000A5FED1A
:10289000410A30EE200AC94880ED0D0A09E0C84817
:1028A00090ED000A5FED470A30EE600AC34880ED04
:1028B0000D0AC44890ED0D0AC348D0ED000A30EE71
:1028C000600A5FED4E0AB4EEE00AF1EE10FA0EDC9B
:1028D000BC4890ED0D0ABC48D0ED000A30EE600A0D
:1028E000DFEDB50AB4EEE00AF1EE10FA22D2B548F7
:1028F00090ED0D0AB448D0ED000A30EE600A5FEDAD
:102900005D0AB4EEE00AF1EE10FA09DD90ED000A7E
:102910005FED620A30EE200AAA4880ED0D0A09E058
:10292000A94890ED000A5FED670A30EE600AA548FD
:1029300080ED0D0AA54890ED0D0AA548D0ED000ADE
:1029400030EE600A5FED6F0AB4EEE00AF1EE10FAC5
:102950000EDC9E4890ED0D0A9D48D0ED000A30EE49
:10296000600ADFED950AB4EEE00AF1EE10FA22D229
:10297000964890ED0D0A9648D0ED000A30EE600AB8
:102980005FED7E0AB4EEE00AF1EE10FA09DD90ED9B
:10299000000A5FED820A30EE200A8C4880ED0D0AB5
:1029A00009E08B4890ED000A5FED880A30EE600A7E
:1029B000864880ED0D0A854890ED0D0A10EE101A3C
:1029C0000846FEF7DFFC41EC1B0BB0EE4B0AF0EEC5
:1029D0006B0A05F099FFB0EE409AF0EE609A7948E4
:1029E00090ED0D0A10EE101A0846FEF7CBFC41ECF4
:1029F0001D0BB0EE4D0AF0EE6D0A05F085FFB0EE4E
:102A000040BAF0EE60BA6D4890ED0D0A10EE101A63
:102A10000846FEF7B7FC41EC1F0BB0EE4F0AF0EE94
:102A20006F0A05F071FFB0EE40DAF0EE60DA61484F
:102A300090ED0D0A10EE101A0846FEF7A3FC41ECCB
:102A40001F0BB0EE4F0AF0EE6F0A05F05DFFB0EE1F
:102A500040EAF0EE60EA53EC1D2B51EC1E0BFEF742
:102A6000DFFA41EC1C0B53EC1B2BFEF7D9FA41ECBF
:102A70001A0B53EC192BFEF7D3FA41EC180BFEF7A7
:102A8000ADFC04462046FEF77DFC41EC180B9FEDA3
:102A9000510B53EC102BFEF789FC3BD22046FEF77E
:102AA00071FC41EC1B0B53EC1B2B9FED4A0B51ECC3
:102AB000100BFEF7CEFB41EC1A0BB0EE4A0AF0EE1B
:102AC0006A0A05F021FFB0EE409AF0EE609A51ECF0
:102AD000190BFEF783FC08EE100A364890ED0D0A3C
:102AE00020EE080A80ED0D0A344890ED0D0A20EE24
:102AF000080A80ED0D0A334890ED0D0A20EE080A11
:102B000080ED0D0A314890ED0D0A20EE080A80EDA7
:102B10000D0A00BF01F0CCF8032809D002F0C3FD74
:102B200030B901F0C5F8042802D001F0C1F840B96D
:102B300000200346024601460090284804F022F98E
:102B400023E0224890ED0D0ABDEEC00A10EE100AF7
:102B500000B200901B4890ED0D0ABDEEC00A10EEC9
:102B6000100A03B2154890ED0D0ABDEEC00A10EE32
:102B7000100A02B20F4890ED0D0ABDEEC00A10EE29
:102B8000100A01B2154804F0FDF80A4890ED0D0A4C
:102B9000074880ED000A094890ED0D0A084880EDCD
:102BA000000A084890ED0D0A074880ED000A17E07A
:102BB000400500200C030020000048C45C030020F6
:102BC00044050020AC03002048050020FC03002041
:102BD0004C050020000000000070C7400068004065
:102BE000044890ED0D0A044880ED000A02B0BDECE7
:102BF000108B10BDFC0300204C05002010B50446CE
:102C00006078012802D0022813D10EE0A01C06F043
:102C100076FB10EE100A08490860A01D06F06FFB55
:102C200010EE100A0449486004E0A07802490872D6
:102C300000E000BF00BF10BD680C002010B50220EE
:102C400002F094FC18B1022003F09CFE6AE004201C
:102C500002F08CFC90B101F071F90446002C61D0B7
:102C6000012C5FD0022C5DD12F4803F049FF2F4883
:102C700003F0B2FE042003F085FE53E0402002F092
:102C800075FC18B1402003F07DFE4BE0802002F07F
:102C90006DFC90B101F074F80446002C42D0012C78
:102CA00040D0022C3ED1224803F0F0FE1F4803F032
:102CB00093FE802003F066FE34E0102002F056FC04
:102CC00058B103F041F9044664B3012C2AD0022C18
:102CD00028D1102003F056FE24E0202002F046FC0C
:102CE00088B103F0E7F80446E4B1012C1AD0022CB5
:102CF00018D1104803F028FF0C4803F06DFE202087
:102D000003F040FE0EE04FF4807002F02FFC48B15B
:102D1000094803F027FF054803F05EFE4FF480707A
:102D200003F030FE10BD000000010020E609002085
:102D3000070100203D0A00200C01002070B52DED98
:102D4000048B044673480068401C72490860206880
:102D5000A0F20120062871D2DFE800F003172B3F14
:102D60005381032000F0BCFE0546FEF795F8694844
:102D70000068322804D82146674800F097FE03E037
:102D80002146654800F0E0FB98E0042000F0A8FE32
:102D90000546FEF781F85F480068322804D82146CE
:102DA0005E4800F083FE03E021465C4800F0CCFB67
:102DB00084E0052000F094FE0546FEF76DF85548C6
:102DC0000068322804D82146554800F06FFE03E021
:102DD0002146534800F0B8FB70E0062000F080FE6A
:102DE0000546FEF759F84B480068322804D82146BA
:102DF0004C4800F05BFE03E021464A4800F0A4FB8B
:102E00005CE0072000F06CFE0546FEF745F8214621
:102E1000454800F099FB00F04BFFF8B94248806943
:102E200041498968401A10F57A6F08DA3F48B0F9CD
:102E3000050000F500503C4988610FE03DE03A484C
:102E4000806939498968401AB0F57A6F06DD3748DC
:102E5000B0F90500A0F50050334988612EE0082044
:102E600000F03EFE0546FEF717F82146304800F018
:102E70006BFB2848006864281ED82D4880692C49BF
:102E80008968401A10F57A6F07DA2848B0F9070008
:102E900000F50050264988610EE0254880692449E4
:102EA0008968401AB0F57A6F06DD2048B0F907004E
:102EB000A0F500501E49886100E000BF00BF1A481D
:102EC00090ED100A10EE101A0846FEF75BFA41EC7E
:102ED000190BB0EE490AF0EE690A05F015FDB0EEE7
:102EE000408AF0EE608A51EC180BFEF732FA054684
:102EF0004621FDF7DAFF18B100F0DAFE032805D10C
:102F0000092000F0EDFD0546FDF7C6FFBDEC048B82
:102F100070BD0000F0050020D00A0020140B002036
:102F2000580B00209C0B0020E00B0020E60900203D
:102F3000240C00200246002002EA01030BB101200C
:102F400000E000207047000000B50246107D00F050
:102F5000100018B101202F49087002E000202D490F
:102F60000870907C012802D103F08AFE02E0002064
:102F700003F086FED07C01280DD1507C58B926483C
:102F80000078022803D002202349087026E00020A0
:102F90002149087022E0107D00F0200078B1907D7A
:102FA00000F0200058B91C480078012803D0012007
:102FB0001949087012E00020174908700EE0107DD2
:102FC00000F0400050B114480078032803D00320DB
:102FD0001149087002E000200F4908700E4800787F
:102FE00020B1012808D0022812D10BE09FED0B0A76
:102FF0000B4880ED000A0BE09FED0A0A084880EDBF
:10300000000A05E09FED070A054880ED000A00BFB1
:1030100000BF00BD6D0500206E0500200000484483
:10302000700500200000C84310B516480068401C19
:103030001449086004F01EFF04F0BAFF114800684C
:10304000642801D202F06EFA0E480068B0F5FA6FFB
:1030500001D100F0F7FC00F0E5FE00F0BFFB00F04E
:1030600031FC03F021FDFFF7E9FD0648007800F090
:10307000030028B903F088FFFFF768F903F04CFF5D
:1030800010BD00003805002010B500203E49086042
:10309000FEF740FB3D4803F09FFC002003F06CFE70
:1030A0003B484FF47A61C26990473A484FF47A61DD
:1030B000C2699047364881698847364881698847A0
:1030C0009FED350A354880ED000A9FED330A80ED0B
:1030D000010A002000F004FD0446FDF7DDFE01209A
:1030E00000F0FEFC0446FDF7D7FE032000F0F8FCDC
:1030F0000446FDF7D1FE042000F0F2FC0446FDF783
:10310000CBFE052000F0ECFC0446FDF7C5FE0620D2
:1031100000F0E6FC0446FDF7BFFE072000F0E0FCEF
:103120000446FDF7B9FE082000F0DAFC0446FDF77E
:10313000B3FE092000F0D4FC0446FDF7ADFE0A20E2
:1031400000F0CEFC0446FDF7A7FE1548C16C884789
:103150001448C16C88471448C16C88471348C16C37
:1031600088471348C16C88471248C16C8847124889
:10317000C16C88471148C16C88471148C16C8847A9
:103180001048C16C884710BD38050020E6090020B2
:10319000F00400201405002000000000A00A002018
:1031A0009C0400207C010020CC0100201C02002097
:1031B0006C020020BC0200200C0300205C030020F5
:1031C000AC030020FC03002021B1026842F00102A0
:1031D000026003E0026822F0010202607047000012
:1031E000016821F0010101600021016041608160FE
:1031F000C1600161212141614A49884204D13D21D8
:10320000484A103A91608CE046491831884205D10D
:103210004FF47461434A103A916082E04149303181
:10322000884205D14FF474113E4A103A916078E01B
:103230003C494831884205D14FF07461394A103A0F
:1032400091606EE037496031884204D13649354A91
:10325000103AD16065E033497831884204D133496E
:10326000304A103AD1605CE02E499031884204D156
:103270002F492C4A103AD16053E02A49A83188429C
:1032800005D14FF03D51274A103AD16049E0294914
:10329000884204D13D21274A083A116041E025497E
:1032A0001831884205D14FF47461224A083A1160FE
:1032B00037E020493031884205D14FF474111D4A5E
:1032C000083A11602DE01B494831884205D14FF082
:1032D0007461184A083A116023E016496031884247
:1032E00004D11149134A121F11601AE011497831B3
:1032F000884204D10D490F4A121F116011E00D4997
:103300009031884204D10A490A4A121F116008E02C
:103310000849A831884204D14FF03D51054A121F97
:1033200011607047106002403D000020400F0020F7
:1033300000003D201064024021B1026842F4802266
:10334000026003E0026822F480220260704722B12A
:10335000036843F40023036003E0036823F40023BD
:103360000360016170470146486880B270470146BA
:1033700000200A6802F400220AB1012000E00020C7
:103380007047000010B500220268134B1A40CC6849
:103390000B6823434C6923438C692343CC69234343
:1033A0000C6A23434C6A23438C6A23434C6B2343AC
:1033B0008C6B23431A430260426922F00702D1E971
:1033C0000B3423431A4342610B6943604B688360AB
:1033D0008B68C36010BD00003F801CF000210160BD
:1033E00041608160C160016141618161C1610162CF
:1033F00041628162C16201634163816370477047CA
:1034000010B5002107E04AF2104200BF131EA2F1DE
:103410000102FBD1491C8142F5D310BD10B501203A
:1034200000F034F810B1012000F02AF810BD10B5FA
:10343000022000F02BF810B1022000F021F810BD9E
:1034400010B5102000F022F880B1102000F012F822
:10345000102000F015F8012000F042FB0446FDF7B3
:103460001BFD01200249087000F046FB10BD000062
:10347000FC0000200149086070470000143C014036
:103480000149086070470000143C014001460020DB
:103490000022074B1B6803EA0102054B14331B682B
:1034A0000B4013B10AB1012000E00020704700007A
:1034B000003C0140002123498279002A3AD00A4683
:1034C000126803689A430B461A600A1D1268036863
:1034D0009A430B1D1A60027911440A6803681A4363
:1034E0000A60184A0832126803689A43154B083379
:1034F0001A601A1D126803689A43124B0C331A6043
:103500004279102A0ED11A1F126803681A430D4B14
:1035100008331A601A1D126803681A43094B0C33EA
:103520001A600DE00749427911440A6803681A439A
:103530000A6005E0027911440A6803689A430A6048
:1035400070470000003C014070B500220023046871
:1035500044600C7BCD7A44EA052404600468456825
:10356000641BC4602E4C2468322C02D80024C46131
:103570001AE0C4682B4DAC4207DA846B641C846388
:10358000C46804F50054C4610EE0C46841F65835BF
:10359000AC4207DD846B641E8463C468A4F50054E8
:1035A000C46101E0C468C4610568846B05EB443400
:1035B000846004688569641B00EE104AB8EEC00A96
:1035C000DFED190A20EE200A9FED181AC0EE010A5D
:1035D000846B4FF4B4756C4300EE104AB8EEC00A29
:1035E00030EE800A80ED100AC669047D651C057501
:1035F00000F1200545F82460047D062C01D100244B
:103600000475002205E000F1200454F82240234410
:10361000521C062AF7DB062493FBF4F4C46370BD46
:10362000F0050020A8E4FFFF0000B44300000046BE
:1036300047F6FF700149086070470000240400400D
:1036400030B10749096841F48061054A116005E01D
:103650000349096821F48061014A11607047000044
:10366000003C024070B504460A460026082502B90F
:1036700009E0012A01D1160205E0022A01D1160251
:1036800001E04FF4407600F097F80546082D28D168
:103690001548006820F44070134908600846006827
:1036A000304308600846006820F0F80008600846CB
:1036B000006844F0020108430B49086008460068AE
:1036C00040F48030086000F077F80546064800684E
:1036D00020F00200044908600846006820F0F80065
:1036E0000860284670BD0000103C024008201049C8
:1036F000096801F48031B1F5803F01D1012015E066
:103700000B49096801F0100109B105200EE00849D4
:10371000096801F0EF0109B1062007E004490968D2
:1037200001F0020109B1072000E008207047000005
:103730000C3C02400348006840F00040014908602A
:1037400070470000103C024030B502460C46082588
:1037500000F032F80546082D17D10D48006820F416
:1037600040700B4908600846006808600846006819
:1037700040F001000860147000F01EF8054604488F
:10378000006820F0010002490860284630BD0000B2
:10379000103C02400548006800F0004028B1044891
:1037A00002490C390860034808607047103C024029
:1037B00023016745AB89EFCD08B508200090FFF7DE
:1037C00095FF009002E0FFF791FF00909DF8000048
:1037D0000128F8D09DF8000008BD000010B5314860
:1037E000B0F902000F3000EE100AB8EEC00A2E4801
:1037F00080ED040A2B48B0F9040000EE100AB8EE80
:10380000C00A294880ED050A2648B0F9060000EEF6
:10381000100AB8EEC00A244880ED060A2348B0F921
:103820000200193000EE100AB8EEC00A204880ED00
:10383000040A1E48B0F9040000EE100AB8EEC00AEF
:103840001B4880ED050A1948B0F9060000EE100A81
:10385000B8EEC00A164880ED060A164890ED000A38
:10386000114880ED000A1448016988471348D0EDDB
:10387000100AF1EE600A20EE200A0B4880ED010AE2
:10388000816C8847084890ED0D0A094880ED000AD0
:103890000B4890ED050A064880ED010A816C8847C7
:1038A00010BD0000200100207C0100202801002024
:1038B000CC010020A00A0020F0040020240C0020ED
:1038C000CC08002010B5B2EE000A154880ED040ABD
:1038D0009FED140A80ED050A9FED120A80ED060A9D
:1038E0009FED110A114880ED040A9FED110A80ED49
:1038F000050A9FED0C0A80ED060A0948816C88478D
:10390000074890ED0D0A094880ED000A094890ED3E
:10391000060A064880ED010A816C884710BD000048
:103920001C02002000000000000034426C02002055
:103930000AD7233CCC080020F0B50A46002100231A
:10394000002400BF3DE0012505FA01F3156805EAF2
:1039500003049C4234D105684F000326BE40B543A2
:10396000056015794E00B540066835430560157948
:10397000012D02D01579022D16D185684F0003263E
:10398000BE40B543856055794E00B54086683543E5
:103990008560456801268E40B54345604568967947
:1039A0008E40B6B235434560C5684F000326BE4021
:1039B000B543C560D5794E00B540C6683543C5608E
:1039C000491C1029BFD3F0BDF0B5002300244D07DA
:1039D000ED0E02FA05F3CE1000F1200555F8265041
:1039E0004E07F70E0F26BE40B543CF1000F120065C
:1039F00046F82750CE1000F1200555F8265045EA2C
:103A00000304CE1000F1200545F82640F0BD024623
:103A1000002013690B400BB1012000E0002070472B
:103A200041837047018370474FF6FF7101600021A9
:103A3000017141718171C171704742694A404261AF
:103A40007047000000B585B040F2044000900020AF
:103A50008DF808008DF8090008208DF80A00002074
:103A60008DF80B0001218DF80C1002218DF80D103E
:103A700003218DF80E1004218DF80F1005218DF80B
:103A8000101006218DF8111007218DF812106946CB
:103A90000248FEF7C8FB05B000BD0000006400400E
:103AA0000148006870470000440100200A7BCB7A7F
:103AB00042EA03228261826982608269426002690D
:103AC000521C0261704700000148007870470000F6
:103AD0006A05002001480078704700006C0500204E
:103AE00001460B2903D2034800EB810070470020F8
:103AF000FCE70000F4050020324890ED030A32484C
:103B000080ED040A2F4890ED040AB1EE400A2E48D9
:103B100080ED050A2B4890ED050A2B4880ED060A3A
:103B20002A4890ED000A2A4880ED000A294890EDC5
:103B3000000A264880ED000A90ED000A2448D0EDE6
:103B4000000A30EE600ADFED240AB4EEE00AF1EE7E
:103B500010FA05DB21480068401E2049086013E088
:103B60001A4890ED000A1A48D0ED000A30EE600ABB
:103B7000DFED1B0AB4EEE00AF1EE10FA04D81748A4
:103B80000068401C15490860144800684FF4B4717F
:103B9000484300EE100AB8EEC00A0C48D0ED000A07
:103BA00030EE200A0F4880ED000A0A4890ED010A25
:103BB0000D4880ED000A074890ED020A0B4880EDA1
:103BC000000A704778080020CC080020740000200C
:103BD00080000020AC0800200000A543E000002089
:103BE0000000A5C38C00002090000020940000205D
:103BF000002108480068A0F5FE41FF3947F6FF7034
:103C0000044A106004480078012801D10846704732
:103C10004842FCE7240400401800002010B5017061
:103C20000378047D021D1355037DD35C447D125D32
:103C300043EA82024270027D521C02F00F0282753A
:103C40004378847D021D125D43EA02128270037D77
:103C5000021DD35C447D125D934205D10D4A12686A
:103C6000521C0C4B1A6002E000220A4B1A60094AEF
:103C70001268282A03D3037D021DD25CC270027D24
:103C80004275027D521C0275027D102A01D100226C
:103C9000027510BDE805002001480078704700005B
:103CA0006D05002001480078704700006B0500207A
:103CB0000148007870470000ED04002001460248EA
:103CC0000068084070470000200600204FF0804048
:103CD000406A7047274890ED000AFBEE0D0AB4EEEB
:103CE000E00AF1EE10FA04D8BBEE0D0A80ED000AEE
:103CF0000DE0204890ED000AF3EE030AB4EEE00A6E
:103D0000F1EE10FA03DBB3EE030A80ED000A194866
:103D100090ED010A1848D0ED010A9FED181A70EED7
:103D2000C10AB4EEE00AF1EE10FA09D890ED010AEA
:103D3000DFED120A30EE600A0E4880ED010A17E04E
:103D40000C4890ED010A0C48D0ED010A9FED0B1ACA
:103D500070EE810AB4EEE00AF1EE10FA08DB90EDA5
:103D6000010ADFED060A30EE200A024880ED010A62
:103D700070470000A00A00201C02002000007042D2
:103D800010B5802001F084FC20B94FF4807001F060
:103D90007FFC08B1002010BD1B4801680068401C72
:103DA000194A10601948006881420FD2184800680B
:103DB00018490968084417490860174800681749F6
:103DC00009680844154908600120E4E711480068C3
:103DD0000E490968B0FBF1F000B2114948800F4864
:103DE00000680A490968B0FBF1F000B20C4908808C
:103DF0005A200871002007490860084908600249F4
:103E000008600220C7E70000480100204C010020A4
:103E1000240C002050010020E00B00205401002061
:103E20000701002010B5FFF743FF052870D2DFE837
:103E300000F00339196D6E009FED360A364880EDAB
:103E4000000A3648016988473548D0ED100AF1EE7E
:103E5000600A20EE200A304880ED010A0120314935
:103E6000087055E02F48007801280ED100202D4918
:103E7000087001202C4908702C4890ED000A2C484D
:103E800080ED010A00202B490860294890ED010AC5
:103E9000214880ED000A254890ED000A1E4880ED7B
:103EA000010A35E023480068401C224908600846A2
:103EB0000068214988420CD21D4890ED010A16483D
:103EC00080ED000A194890ED000A134880ED010AC0
:103ED0001BE01548007801280BD10020124908701A
:103EE000012010490870114890ED000A104880ED3B
:103EF000010A0F4890ED010A074880ED000A0B48BF
:103F000090ED000A044880ED010A01E000E000BFE6
:103F100000BF10BD000000001C020020140500209E
:103F2000E00B00205D0500205C0500208C000020D7
:103F3000A00A002060050020A086010000B585B021
:103F400000200290039004902F49088048808880C8
:103F5000022001F09DFB10B1002005B000BD2B48F0
:103F600001880088401C294A108029480088814225
:103F700021DA0DF1120004A9031F03AACDE90010F4
:103F8000891F02A801F0A6FEBDF90E0021490968AB
:103F9000084420490860BDF910001F490968084419
:103FA0001D490860BDF912001C49096808441B49F5
:103FB00008600120D1E7174800681549098890FB7F
:103FC000F1F000B2164908801348006810490988CA
:103FD00090FBF1F000B212494880104800680C498B
:103FE000098890FBF1F000B20D4988805A20887151
:103FF000002008490860084908600849086003492A
:1040000008800220A9E700001901002058010020C3
:104010005A0100205C0100206001002064010020A2
:10402000000100201CB50121022002F0C9FA102075
:10403000009001208DF8040000208DF80600032078
:104040008DF8050069460448FFF776FC1021024808
:10405000FFF7E6FC1CBD00000004024008B500208C
:10406000009001236A460A213C2001F017FE40B966
:104070009DF80000482809D015A003F0ADFFFF20EF
:1040800008BD16A003F0A8FFFF20F9E77022002169
:104090003C2000F01FFB0520FFF7B2F9A022012110
:1040A0003C2000F017FB0520FFF7AAF900220221AF
:1040B0003C2000F00FFB0620FFF7A2F91822002198
:1040C0003C2000F007FB0620FFF79AF90020D7E715
:1040D0006572726F722032410D0A00006572726F54
:1040E000722032420D0A000010B504460623224613
:1040F00003213C2001F0D2FD10BD00002DE9F0416C
:1041000004460D4616461648FFF7EEFF144B0E3BCD
:104110005B7C134F0E3F3F7C43EA07231AB2104BE0
:104120000E3BDB7B0E4F0E3FBF7B43EA07235B4218
:1041300019B20B4B0E3BDB7C094F0E3FBF7C43EAB1
:10414000072318B200F070F80648808A20800548DE
:10415000408D28800348B0F840003080BDE8F081F1
:104160000E09002098090020054B9B8A0380044B10
:104170005B8D0B80024BB3F840301380704700001A
:10418000980900203EB504466A4601A902A8FFF737
:10419000B5FF2148B0F90000BDF90810081A00EE7B
:1041A000100AF8EEC00A1C48D0F8060000EE100A0B
:1041B00020EE800A194880ED000A84ED000A1648B6
:1041C000B0F90200BDF90410081A00EE100AF8EE6A
:1041D000C00A1148D0F80A0000EE100A20EE800A4A
:1041E0000F4880ED000A84ED010A0B48B0F9040085
:1041F000BDF90010081A00EE100AF8EEC00A0648D1
:10420000D0F80E0000EE100A20EE800A054880ED7E
:10421000000A84ED020A3EBD630A0020E40000208B
:10422000E8000020EC000020F0B503460C4600201A
:104230000021012019E0504D35F81060451E4E4F09
:1042400027F8156007F1160535F81070451E4A4E1F
:10425000163626F8157006F1160535F81070451E4D
:10426000163626F81570451CE8B20A28E3DB424DE5
:104270006B822C85EA87002005E03F4D35F9105010
:104280002944451CE8B20A28F7DB0A2591FBF5F51D
:104290002DB2394EB5820021002006E0364D16358C
:1042A00035F910502944451CE8B20A28F6DB0A25E6
:1042B00091FBF5F52EB2304D6E850021002006E011
:1042C0002D4D2C3535F910502944451CE8B20A28EB
:1042D000F6DB0A2591FBF5F52EB2274DA5F84060D7
:1042E000264DB5F90650244EB6F91460B54203DDEB
:1042F000214DAD8A214EF580204DB5F908601E4D47
:10430000B5F92A50AE4203DD1B4D6D8D1B4E358134
:104310001A4DB5F90A60184DB5F94050AE4204DDAA
:10432000154DB5F84050154E7581144DB5F9005036
:10433000114EB6F91460B54203DA0F4DAD8A0F4E37
:1043400035800E4DB5F902600B4DB5F92A50AE42DD
:1043500003DA094D6D8D094E7580084DB5F904607D
:10436000054DB5F94050AE4204DA034DB5F8405062
:10437000024EB580F0BD000098090020DA09002047
:1043800000BFFEE710B5044600F0E6F82CB14FF48C
:1043900000710D48FFF746FB04E04FF400710A4836
:1043A000FFF73EFB4FF480710748FFF73BFB01200E
:1043B00000F00CF84FF480710348FFF731FB012047
:1043C00000F004F810BD00000004024010B5002108
:1043D00006E0062200BF131EA2F10102FBD1491C18
:1043E0008142F6D310BD00001CB50121022002F06D
:1043F000E7F84FF44070009001208DF804008DF82C
:10440000060003208DF8050069460248FFF794FA7C
:104410001CBD00000004024070B5002400F086F8C6
:1044200000251BE04FF480711148FFF7F9FA0120D5
:10443000FFF7CCFF4FF480710D48FFF7F3FA6006E9
:10444000040E4FF400710A48FFF7E1FA08B1601C4E
:10445000C4B20120FFF7BAFF681CC5B2082DE1DB2A
:104460004FF480710248FFF7DBFA204670BD000070
:10447000000402402DE9F04106460F4614469846D6
:1044800000F07EF8304600F0F3F800F0B9F8FF28AD
:1044900005D11DA003F0A0FDFF20BDE8F081384646
:1044A00000F0E6F800F0ACF8FF2804D119A003F002
:1044B00093FDFF20F1E700F063F8711CC8B200F033
:1044C000D7F800F09DF8FF2804D115A003F084FD73
:1044D000FF20E2E7002508E0FFF79EFF20700020A4
:1044E000FFF750FF641C681CC5B2A8F10100A84288
:1044F000F2DCFFF791FF20700120FFF743FF00F08F
:104500005FF80020C9E700006572726F72203246C2
:104510000D0A00006572726F722032470D0A0000AA
:104520006572726F722032480D0A00001CB54FF49C
:104530000070009000208DF804008DF806008DF8C2
:10454000070002208DF8050069460248FFF7F4F9DC
:104550001CBD0000000402401CB54FF40070009028
:1045600001208DF804008DF8060003208DF8050069
:1045700069460248FFF7E0F91CBD00000004024054
:1045800010B5FFF7E9FF4FF400710C48FFF74AFA46
:104590004FF480710948FFF745FA0120FFF716FF35
:1045A0004FF400710548FFF73BFA0120FFF70EFFBB
:1045B0004FF480710148FFF733FA10BD0004024048
:1045C00010B5FFF7C9FF4FF480710C48FFF728FAC8
:1045D0004FF400710948FFF723FA0120FFF7F6FEB8
:1045E0004FF480710548FFF71DFA4FF4007103483E
:1045F000FFF718FA0120FFF7E9FE10BD00040240A2
:1046000010B54FF47A744FF400711548FFF70AFAA9
:10461000FFF78CFF0120FFF7D9FE4FF4807110489F
:10462000FFF700FA0120FFF7D1FE0AE0601E80B21A
:10463000041E06D0FFF7C4FF0AA003F0CDFCFF2044
:1046400010BD4FF400710648FFF7E1F90028EDD1E5
:104650004FF480710248FFF7E3F90020F0E7000013
:10466000000402406572726F722032410D0A000030
:1046700070B50446FFF770FF4FF480711448FFF7E0
:10468000CFF9002521E004F0800028B14FF400713B
:104690000F48FFF7C7F904E04FF400710C48FFF72B
:1046A000BFF96006040E0120FFF790FE4FF4807101
:1046B0000748FFF7B7F90120FFF788FE4FF4807134
:1046C0000348FFF7ADF9681CC5B2082DDBDB70BDF0
:1046D0000004024070B506460C461546FFF750FF31
:1046E0003046FFF7C5FFFFF78BFFFF2804D110A06E
:1046F00003F072FCFF2070BD2046FFF7B9FFFFF703
:104700007FFFFF2804D10DA003F066FCFF20F2E735
:104710002846FFF7ADFFFFF773FFFF2804D10AA07B
:1047200003F05AFCFF20E6E7FFF74AFF0020E2E72C
:104730006572726F722032420D0A00006572726FEC
:10474000722032430D0A00006572726F722032448B
:104750000D0A000010B52DED108BA0B0FE4890EDB5
:10476000000AD0ED000A20EE200A8DED130A90ED2C
:10477000000AFA48D0ED000A20EE200A8DED120A58
:10478000F54890ED000AF648D0ED000A20EE200A28
:10479000F0EE40EAF04890ED000AF248D0ED000A51
:1047A00020EE200A8DED110AEC4890ED000AD0EDC4
:1047B000000A20EE200A8DED100A90ED000AE8486C
:1047C000D0ED000A20EE200A8DED0F0AE34890EDAF
:1047D000000AE448D0ED000A20EE200AB0EE40FACC
:1047E000DF4890ED000AD0ED000A20EE200A8DEDA2
:1047F0000E0A90ED000ADB48D0ED000A20EE200AF8
:104800008DED0D0A90ED000AD0ED000A20EE200A91
:104810008DED0C0AD44890ED030ADFEDD40A20EEAA
:10482000200ADFEDD30A80EE201AD24880ED001A6C
:10483000CD4890ED040ADFEDCD0A20EE200ADFED31
:10484000CC0A80EE201ACC4880ED001AC64890EDC4
:10485000050ADFEDC60A20EE200ADFEDC50A80EE6C
:10486000201AC64880ED001ABF4890ED000AC448DF
:1048700080ED000ABC4890ED010AC24880ED000AB4
:10488000B94890ED020AC04880ED000AB64890EDA4
:10489000060ABE4880ED000AB34890ED070ABC48FE
:1048A00080ED000AB04890ED080ABA4880ED000A91
:1048B000FFF70CFAB849086008460068B74909686C
:1048C00088420CD3B4480068B4490968401A00EE25
:1048D000100AB8EE400ADFEDB20A80EE20EAAE48D8
:1048E0000068AE490860A648D0ED000A90ED001AB5
:1048F00060EE810AA34890ED001AD0ED001A41EE57
:10490000210AA14890ED001AD0ED001A41EE210ACB
:10491000B0EE600A04F056FDB0EE408A984890ED83
:10492000000A20EE080A80ED000A964890ED000A81
:1049300020EE080A80ED000A934890ED000A20EE70
:10494000080A80ED000A8E4890ED000A954880ED37
:10495000000A8C4890ED000A934880ED000A8A48CE
:1049600090ED000A914880ED000A8848D0ED000AD9
:1049700090ED001A60EE810A854890ED001AD0EDA6
:10498000001A41EE210A834890ED001AD0ED001A7A
:1049900041EE210AB0EE600A04F014FDB0EE408A48
:1049A0007A4890ED000A20EE080A80ED000A784867
:1049B00090ED000A20EE080A80ED000A754890ED9F
:1049C000000A20EE080A80ED000A704890ED000A07
:1049D000F0EE000A60EE200A9DED0E0AB6EE001A17
:1049E00031EE401A9DED0C0A31EE400A20EE800AAD
:1049F0006748D0ED000AB0EE001A60EE811ADDEDD6
:104A00000F0A9DED111A70EEC10A01EEA00A61486D
:104A1000D0ED000AB0EE001A60EE810A3FEE2E1AC9
:104A200000EE810A8DED1E0A584890ED000AF0EE66
:104A3000000A20EE201A9DED0F0ADDED110A30EE7E
:104A4000200A21EE000A5248D0ED000AB0EE001A0A
:104A500020EE811ADDED100AF6EE001A71EEE01A72
:104A6000DDED0C0A71EEE00A01EE200A4948D0EDB6
:104A7000000AB0EE001A60EE811ADDED0D0A9DED20
:104A8000121A70EEC10A01EEA00A8DED1D0A3F4810
:104A900090ED000AF0EE000A20EE200A7FEE6E0A8A
:104AA00020EE200A3A48D0ED000AB0EE001A60EE7F
:104AB000811ADDED0D0A9DED121A70EE810A01EEEC
:104AC000A00A3448D0ED000AB0EE001A20EE811A98
:104AD000DDED100AF6EE001A71EEE01ADDED0E0AB9
:104AE00071EEE00AB0EE40BA01EE20BA9DED1E0A6A
:104AF00060EE000A9DED1D0A40EE000A10EE901ACD
:104B00000846FCF73FFCCDE904019DED040B03F0E2
:104B10006BFF8DED060B9DED060B51EC100BFCF7BA
:104B20005DFC1C90F0EE4BBA3FEE6E0AF0EE000A10
:104B300020EE20CA9DED120ADDED0D0A30EE200AAE
:104B4000F0EE000A60EE20CA9DED130ADDED100ABA
:104B500070EE600A2CE00000380000203C000020CD
:104B6000400000204400002078080020DB0F49406E
:104B700000003443480000204C000020500000207A
:104B800054000020580000205C000020600000203D
:104B90006400002068000020700000206C000020ED
:104BA0000024F449BC000020C0000020C400002004
:104BB0009DED0E0A70EEC00A9DED0C0A30EE80DA13
:104BC000FE4880ED00CAFE48C0ED00CAFD4880EDF9
:104BD00000DA9DED1C0AF0EE000A60EE200A9DED61
:104BE0000E0AB6EE001A31EE401A9DED0C0A31EEB7
:104BF000400A20EE800AB0EE6BBAF0EE000A6BEECF
:104C0000200A3FEE6E1A00EE810A8DED1B0A9DED23
:104C10001C0AF0EE000A20EE201A9DED0F0ADDEDD1
:104C2000110A30EE600A21EE000AB0EE6BBAF0EE27
:104C3000000A6BEE201ADDED120A9DED0D1A70EEE2
:104C4000810A01EEA00A8DED1A0A9DED1C0AF0EE14
:104C5000000A20EE200A7EEE8F0A20EE200AB0EE37
:104C60006BBAF0EE000A2BEE201ADDED100AF6EE1C
:104C7000001A71EEE01ADDED0E0A71EEE00A01EEA7
:104C8000200A8DED190AD04890ED000A20EE0D0A99
:104C9000CE48D0ED000A10EEAC0A8DED180A90ED6A
:104CA000000A20EE0C0ACA48D0ED000A10EE8D0A68
:104CB000F0EE40DA90ED000A20EE2C0AC248D0ED6A
:104CC000000A10EE8C0AF0EE40FA9DED180AC14879
:104CD00080ED000AC048C0ED00DAC048C0ED00FA1F
:104CE000DDED180A60EEA00A4DEEAD0A4FEEAF0AF8
:104CF000B0EE600A04F066FBB0EE408A9DED180A43
:104D000020EE080A8DED180A2DEE880AF0EE40DA42
:104D10002FEE880AF0EE40FAB14880ED008AAC48E8
:104D200090ED000A2CEE000AA748D0ED000A0CEE28
:104D3000A00AA648D0ED000A0DEE200A10EE101AC7
:104D40000846FCF71FFBB7EE000AC0EE080A10EE9B
:104D5000904ACDE902012046FCF714FBCDE90001A1
:104D60009DED021B9DED000B03F072FC8DED040B1D
:104D70009FED9C0B53EC102B9DED040B51EC100B95
:104D8000FCF7F5F9CDE906019DED060B51EC100B92
:104D9000FCF724FB09EE100AB0EE000AC9EE000A87
:104DA00010EE904A2046FCF7EDFACDE904019DEDA6
:104DB000040B03F045FD8DED060B9DED060B51EC4C
:104DC000100BFCF70BFB09EE900AB0EE000AC9EEDF
:104DD000000A10EE904A2046FCF7D4FACDE9000113
:104DE0009DED000B03F09CFD8DED040B1898FCF776
:104DF000C9FACDE902019DED040B53EC102B9DED9A
:104E0000020B51EC100BFCF7B2F9CDE906019DED58
:104E1000060B51EC100BFCF7E1FA08EE900AB0EE2D
:104E2000000AC9EE000A10EE904A2046FCF7AAFAE2
:104E3000CDE900019DED000B03F072FD8DED040B3B
:104E40001DEE900AFCF79EFACDE902019DED040BE0
:104E500053EC102B9DED020B51EC100BFCF787F976
:104E6000CDE906019DED060B51EC100BFCF7B6FAEF
:104E70000AEE100AB0EE000AC9EE000A10EE904ADF
:104E80002046FCF77FFACDE900019DED000B03F011
:104E900047FD8DED040B1FEE900AFCF773FACDE988
:104EA00002019DED040B53EC102B9DED020B51EC18
:104EB000100BFCF75CF9CDE906019DED060B51ECFA
:104EC000100BFCF78BFA0AEE900A4848C0ED009AE6
:104ED0004748C0ED008A1AEE100A464908601AEEEB
:104EE000900A45490860454880ED009A444890ED95
:104EF000000A444880ED000A434890ED000A434808
:104F000080ED000A424890ED000A424880ED000A18
:104F1000414890ED000A8DED0B0A404890ED000AE3
:104F20008DED0A0A3E4890ED000A8DED090A3D48D4
:104F300090ED000A8DED080A9DED0B0A60EE290A3E
:104F40009DED0A0A40EE680A9DED090A40EE4A0A04
:104F50009DED080A40EE6A0A2F48C0ED000A9DED5B
:104F60000B0A20EE280ADDED0A0A00EEA90ADDEDA3
:104F7000090A00EEAA0ADDED080A00EECA0A27486F
:104F800080ED000A9DED0B0A60EE0A0A9DED0A0A0B
:104F900040EE6A0A9DED090A40EE290A9DED080AD5
:104FA00040EE280A1E48C0ED000A9DED0B0A60EE97
:104FB0002A0A9DED0A0A40EE0A0A35E0B0000020F8
:104FC000B4000020B8000020580000205C00002041
:104FD00054000020980000209C000020A000002029
:104FE000DC000020FCA9F1D24D6250BFC8000020B7
:104FF000CC000020D0000020D4000020D8000020E9
:1050000048000020A40000204C000020A800002040
:1050100050000020AC000020380000203C000020A0
:1050200040000020440000209DED090A40EE680A7F
:105030009DED080A40EE290A5E48C0ED000A5E4870
:1050400090ED000AB1EE400A5C48D0ED000A20EE77
:10505000200A5B48D0ED000A5A4890ED001A00EE95
:10506000C10A544890ED001A5748D0ED001AF0EEEE
:10507000400A41EE610A554890ED000A00EE8E0AA2
:105080008DED170A90ED000A4C48D0ED000A20EE95
:10509000200A4B48D0ED000A4B4890ED001A00EE74
:1050A000810A444890ED001A4648D0ED001AF0EE0F
:1050B000400A41EE610A404890ED000A00EE8E0A77
:1050C0008DED160A414890ED000A3E48D0ED000AE9
:1050D00020EE200A3848D0ED000A3B4890ED001A37
:1050E00000EEC10A334890ED001A3448D0ED001AA2
:1050F000F0EE400A41EE210A314890ED000A00EE40
:105100008E0A8DED150A314890ED000A2E48D0ED3B
:10511000000A20EE200A2848D0ED000A294890ED28
:10512000001A00EE810A264890ED001A2348D0EDBF
:10513000001AF0EE400A41EE610A1E4890ED000AA6
:1051400000EE8E0A8DED140ADDED170A20EEA01A8E
:10515000DDED160A00EEA01ADDED150A00EEA01A2C
:10516000DDED140A00EEA01AB0EE410A04F02AF9AF
:10517000B0EE408A9DED170A20EE080A134880ED34
:10518000000A9DED160A20EE080A0B4880ED000A81
:105190009DED150A20EE080A094880ED000A9DEDF4
:1051A000140A20EE080A034880ED000A20B0BDEC86
:1051B000108B10BD440000203C000020480000205F
:1051C000400000204C00002050000020380000204B
:1051D00010B504460C4800F021F8FFF7BBFA0B4865
:1051E00090ED000A84ED000A094890ED000A84ED74
:1051F000010A084890ED000A84ED020A064890ED85
:10520000000A84ED030A10BD780800203800002051
:105210003C000020400000204400002030B585B054
:1052200004460DF1120004A9031F03AACDE90010E2
:10523000891F02A800F04EFDBDF80800284908802B
:10524000BDF80A004880BDF80C008880BDF80E004B
:105250000881BDF810004881BDF812008881002542
:105260001DE0032D0BDA02A830F9150000EE100A3C
:10527000B8EEC00A04EB850080ED000A0EE002A83B
:1052800030F9150000EE100AB8EEC00ADFED150A7D
:1052900080EE201A04EB850080ED001A6D1C062DAF
:1052A000DFDB04F11800FEF76DFF94ED060ABDEE9A
:1052B000C00A10EE100A00B20949C88194ED070A2D
:1052C000BDEEC00A10EE100A00B2088294ED080A82
:1052D000BDEEC00A10EE100A00B2488205B030BD23
:1052E000B80800203333034210B52DED0C8B044673
:1052F0008748FFF76DFF864890ED020AF8EE000A36
:1053000020EE200AD0ED020A20EE200AD0ED030A9A
:10531000B0EE001A60EE810A90ED031A00EEC10AA9
:10532000F7EE000A30EE200A10EE101A0846FCF7DD
:1053300029F841EC1C0B764890ED010AF0EE000ACA
:1053400020EE200AD0ED020A20EE200AD0ED000A5D
:10535000B0EE001A60EE810A90ED031A00EE810AA9
:1053600010EE101A0846FCF70DF841EC1D0BB0EEDC
:105370004C1AF0EE6C1AB0EE4D0AF0EE6D0A03F026
:1053800067F9B0EE40BAF0EE60BA51EC1B0B81F059
:10539000004141EC1A0B9FED5F0B53EC102BFBF718
:1053A000E6FE41EC190B9FED5D0B53EC102BFBF768
:1053B00050FF41EC180BFCF711F800EE100A84EDD9
:1053C000000A534890ED010AF8EE000A20EE200A88
:1053D000D0ED030A20EE200AD0ED000AB0EE001A4C
:1053E00060EE810A90ED021A00EE810A10EE101AAA
:1053F0000846FBF7C7FF41EC1C0BB0EE4C0AF0EE81
:105400006C0A02F009FEB0EE40BAF0EE60BA51EC60
:105410001B0B81F0004141EC1A0B9FED3E0B53EC4E
:10542000102BFBF7A4FE41EC190B9FED3C0B53EC4A
:10543000102BFBF70EFF41EC180BFBF7CFFF00EE34
:10544000100A84ED010A324890ED010AF8EE000AD4
:1054500020EE200AD0ED010A20EE200AD0ED020A4B
:10546000B0EE001A60EE810A90ED021A00EEC10A59
:10547000F7EE000A30EE200A10EE101A0846FBF78D
:1054800081FF41EC1B0B224890ED020AF0EE000A6E
:1054900020EE200AD0ED030A20EE200AD0ED000A0B
:1054A000B0EE001A60EE810A90ED011A00EE810A5A
:1054B00010EE101A0846FBF765FF41EC1C0BB0EE2E
:1054C0004B1AF0EE6B1AB0EE4C0AF0EE6C0A03F0D9
:1054D000BFF8B0EE40AAF0EE60AA9FED0E0B53ECC1
:1054E000102B51EC1A0BFBF742FE41EC190B9FED10
:1054F0000B0B53EC102BFBF7ACFE41EC180BFBF73E
:105500006DFF00EE100A84ED020ABDEC0C8B10BD9D
:105510009C08002000000000008066400000006041
:10552000FB2109409FED0A0A0A4880ED000A9FED21
:105530000A0A0A4880ED000A9FED090A094880ED31
:10554000000A9FED050A084880ED000A7047000038
:10555000F6975D3E38000020000000003C0000206F
:10556000CCEE79BF400000204400002001460448F2
:105570000068084008B1012070470020FCE70000E7
:105580004401002010B52DED048B3A49B1F900001B
:10559000FBF7CEFE41EC190BB0EE490AF0EE690ABA
:1055A00003F0B2F9B0EE408AF0EE608A9FED320B64
:1055B00053EC102B51EC180BFBF7F8FE53D92D4987
:1055C000B1F90200FBF7B4FE41EC190BB0EE490A49
:1055D000F0EE690A03F098F9B0EE408AF0EE608AC6
:1055E0009FED250B53EC102B51EC180BFBF7DEFE57
:1055F00039D9234890ED050A10EE101A0846FBF73A
:10560000C1FE41EC190BB0EE490AF0EE690A03F055
:105610007BF9B0EE408AF0EE608A9FED170B53ECF9
:10562000102B51EC180BFBF7C1FE1CD9144890ED60
:10563000040A10EE101A0846FBF7A4FE41EC190B01
:10564000B0EE490AF0EE690A03F05EF9B0EE408A66
:10565000F0EE608A9FED080B53EC102B51EC180B09
:10566000FBF7A4FE03D80120BDEC048B10BD002085
:10567000FAE700006405002000000000000024405C
:10568000A00A002001480078704700004001002077
:1056900000B502461046FEF711FB904201D10120F1
:1056A00000BD0020FCE70020704700002DE9F04716
:1056B00004460F4615461E46DDF820804FF00009CF
:1056C00030480068401C2F4908604FF47A7090FB06
:1056D000F8F00968B1FBF0F02B4908600846006853
:1056E000B0FBF7F107FB1109B9FBF5F000283BD13E
:1056F00026480068401C25490860002E12DC44B989
:1057000004212348FEF78CF902212148FEF78AF98B
:1057100035E002211E48FEF783F904211C48FEF7FC
:1057200081F92CE04FF47A7090FBF8F06843710037
:1057300090FBF1F015490968B1FBF0F200FB121083
:10574000E8B944B904211248FEF777F9022110485C
:10575000FEF768F913E002210D48FEF76EF9042107
:105760000B48FEF75FF90AE00020084908600421B1
:105770000748FEF757F902210548FEF753F9BDE83F
:10578000F0870000240600202C06002028060020B8
:10579000000802401CB50121084600F011FF4FF43B
:1057A0008070009001208DF8040000208DF8060024
:1057B00003208DF8050069460448FEF7BDF84FF454
:1057C00080710248FEF72CF91CBD00000000024069
:1057D0001CB50121042000F0F3FE062000900120FA
:1057E0008DF8040000208DF8060003208DF80500D8
:1057F00069460648FEF7A0F802210448FEF712F9B0
:1058000004210248FEF70EF91CBD0000000802400A
:105810002DE9F04304460D46DDE90767002000212D
:10582000012041E0DFF8D8C13CF81080A0F1010C64
:10583000DFF8CC9129F81C8009F1160C3CF8109087
:10584000A0F1010CDFF8B88108F1160828F81C90C7
:1058500008F1160C3CF81090A0F1010C08F11608A4
:1058600028F81C9008F1160C3CF81090A0F1010CDF
:1058700008F1160828F81C9008F1160C3CF8109056
:10588000A0F1010C08F1160828F81C9008F1160C7C
:105890003CF81090A0F1010C08F1160828F81C90B3
:1058A00000F1010C0CF0FF000A28BBDBDFF850C14F
:1058B000ACF81240ACF82850ACF83E20ACF85430AC
:1058C000ACF86A60ACF88070002008E0DFF830C106
:1058D0003CF910C0614400F1010C0CF0FF000A28F3
:1058E000F4DB4FF00A0C91FBFCFC0FFA8CFCDFF8A8
:1058F0001081A8F814C0002100200AE0DFF800C1E0
:105900000CF1160C3CF910C0614400F1010C0CF0D4
:10591000FF000A28F2DB4FF00A0C91FBFCFC0FFAA7
:105920008CF8DFF8DCC0ACF82A80002100200AE007
:10593000DFF8CCC00CF12C0C3CF910C0614400F134
:10594000010C0CF0FF000A28F2DB4FF00A0C91FB6F
:10595000FCFC0FFA8CF8DFF8A8C0ACF840800021FE
:1059600000200AE0DFF898C00CF1420C3CF910C0AE
:10597000614400F1010C0CF0FF000A28F2DB4FF04B
:105980000A0C91FBFCFC0FFA8CF8DFF874C0ACF841
:105990005680002100200AE0DFF864C00CF1580CAA
:1059A0003CF910C0614400F1010C0CF0FF000A2822
:1059B000F2DB4FF00A0C91FBFCFC0FFA8CF8DFF8DD
:1059C00040C0ACF86C80002100200AE0DFF830C055
:1059D0000CF16E0C3CF910C0614400F1010C0CF0AC
:1059E000FF000A28F2DB4FF00A0C91FBFCFC0FFAD7
:1059F0008CF8DFF80CC0ACF88280BDE8F0830000C2
:105A00001409002010B501221921D020FEF762FEF2
:105A1000FF2804D10CA002F0DFFAFF2010BD14A073
:105A200002F0DAFA0A20FDF7EBFC01223821D0203F
:105A3000FEF750FEFF2804D115A002F0CDFAFF209A
:105A4000ECE70020EAE7000043616E6E6F742065AA
:105A50006E61626C6520696E746572727570742017
:105A60007375636365737366756C6C792E0D0A00CC
:105A70004D505536303530207365742073616D702C
:105A80006C65207261746520646F6E652E0A00007B
:105A90006572726F722031490D0A000008B500204E
:105AA0000090FEF7A1FCFEF7BDFA01236A467521BE
:105AB000D020FEF7DFFC40B99DF80000682809D02F
:105AC00036A002F089FAFF2008BD37A002F084FA60
:105AD000FF20F9E701226B21D020FEF7FBFDFF2814
