:020000040800F2
:10000000081900209D0100089D5D0008993E000828
:10001000855A0008E91900087978000800000000F6
:10002000000000000000000000000000C96400089B
:10003000132D000800000000715F0008B5010008E2
:10004000B7010008B7010008B7010008B7010008B0
:10005000B7010008B7010008312D0008432D000842
:10006000B7010008B7010008552D0008B7010008C6
:10007000B7010008B7010008B7010008B701000880
:10008000B7010008B7010008B7010008391B0008D4
:10009000FD1A0008B7010008B7010008B701000801
:1000A000B7010008B7010008B7010008B701000850
:1000B000216C0008B7010008B7010008B70100086B
:1000C000B7010008B7010008B7010008B701000830
:1000D000B701000801710008B70100089572000817
:1000E000B7010008B7010008B7010008B701000810
:1000F000B7010008B7010008B7010008B701000800
:10010000B7010008B7010008B7010008B7010008EF
:10011000B7010008B7010008A16C0008B70100088A
:10012000B7010008B7010008B7010008B7010008CF
:10013000B7010008B7010008B7010008951C0008C6
:10014000651C0008B7010008B7010008B7010008E6
:10015000B7010008B7010008B7010008B70100089F
:10016000B7010008B7010008B7010008B70100088F
:10017000B7010008B7010008B7010008B70100087F
:10018000B7010008B7010008DFF80CD001F064FAED
:1001900000480047258D00080819002006488047C0
:1001A00006480047FEE7FEE7FEE7FEE7FEE7FEE75C
:1001B000FEE7FEE7FEE7FEE77D6B00088901000829
:1001C00010B50446FE48007820B104280ED005285A
:1001D0002FD11CE05A2C07D1FA4804700420F849AA
:1001E00008700120F8490870002010BDF64800781A
:1001F000042802D10520F2490870F34801780078FC
:10020000401CF14A1070EF4844540020EDE70020F4
:10021000EB490870EB48EC4909784454062100F09A
:1002200060FE20B10020E8490870E648DDE70020C4
:10023000DBE70020E2490870E349087000BFD4E71B
:1002400070B505460E46E148007810B104286AD121
:1002500041E02846FFF7B4FF0446002C39D00020C7
:10026000DB4908702178DA4802780078401CD84BC6
:100270001870D84881546178184602780078401C7C
:100280001870D4488154A178184602780078401C30
:100290001870D0488154E178184602780078401CE4
:1002A0001870CC4881542179184602780078401C97
:1002B0001870C84881546279184601780078401C4B
:1002C0001870C44842546078C34908700420BF497C
:1002D0000870002070BDBE4801780078401CBC4A00
:1002E0001070BC484554BC48007808301146097865
:1002F000884216D10020B5490870B748007800F14F
:100300000801B44800F02FFE48B1B348007800F16E
:100310000802B049304600F05FFE0120DAE7002015
:10032000D8E70020D6E70020D4E770B506460C4693
:1003300015465A2028706C700621284600F0E8FD0A
:100340002246B11DA81D00F047FE04F10801284611
:1003500000F027FE04F10800C0B270BD00B970477C
:10036000417000BFFBE700B97047017100BFFBE7B8
:100370000146087970470146881D7047F0B58DB079
:1003800005463421684600F040FE6C46A61D11204B
:1003900060700020A070E07820F00F00E070E0783E
:1003A00020F0F000E0704520207168B23070280A1B
:1003B00040B27070280C40B2B070280E40B2F0709D
:1003C00061786A466846FFF7B0FF07461FB13946B5
:1003D000684606F0CFFD0DB0F0BD2DE9F04F8DB0B1
:1003E00006460F4690469946DDF858B034216846D7
:1003F00000F00BFE6C46A51D0C2060700020A07064
:10040000E07820F00F00E070E07820F0F000E0707D
:100410004120207130B2688038B228800FFA88F00D
:10042000A8800FFA89F028810FFA8BF0E8801798DE
:1004300000B2688161786A466846FFF776FF8246B7
:10044000BAF1000F03D05146684606F093FD0DB097
:10045000BDE8F08F2DE9F04F8DB006460F4690466F
:100460009946DDF858B03421684600F0CEFD6D465F
:10047000AC1D122068700020A870E87820F00F00F2
:10048000E870E87820F0F000E8704020287130B281
:10049000208038B260800FFA88F0A0800FFA89F0CF
:1004A000E0800FFA8BF02081179800B260811898D5
:1004B00000B2A081199800B2E0811A9800B220829F
:1004C00069786A466846FFF730FF8246BAF1000F46
:1004D00003D05146684606F04DFD0DB0BDE8F08FE3
:1004E0002DE9F04F8DB006460F4690469946DDF84F
:1004F00058B03421684600F088FD6C46A51D0C20DC
:1005000060700020A070E07820F00F00E070E078CC
:1005100020F0F000E0704220207130B2288038B224
:1005200068800FFA88F0A8800FFA89F0E8800FFA47
:100530008BF02881179800B2688161786A46684616
:10054000FFF7F3FE8246BAF1000F03D0514668462A
:1005500006F010FD0DB0BDE8F08F2DE9F04F8DB025
:1005600006460F4690469946DDF858B03421684655
:1005700000F04BFD6D46AC1D112068700020A87086
:10058000E87820F00F00E870E87820F0F000E870DC
:1005900044202871641C04F8016C38B220800FFAE2
:1005A00088F060800FFA89F0A0800FFA8BF0E0806D
:1005B000179800B22081189800B260811A980DE057
:1005C000D4050020F80B0020D5050020D805002018
:1005D000D7050020020C0020D605002000B2E081E3
:1005E000199800B2A081641E69786A466846FFF7D0
:1005F0009CFE8246BAF1000F03D05146684606F0D1
:10060000B9FC0DB0BDE8F08F2DE9F0418EB0054684
:100610000E46342101A800F0F8FC01AC0DF10A08E7
:10062000112060700020A070E07820F00F00E070D2
:10063000E07820F0F000E0702571002088F80000DC
:1006400088F80160617801AA01A8FFF76EFE0746ED
:100650001FB1394601A806F08DFC0EB0BDE8F0814F
:10066000704770B52DED0C8B8EB0B0EE408AF0EE79
:10067000608AB0EE419AF0EE619AB0EE42AAF0EED6
:1006800062AAB0EE43BAF0EE63BAB0EE44CAF0EE3E
:1006900064CAB0EE45DAF0EE65DA342101A800F064
:1006A000B4FC01ADAC1D182068700020A870E8787B
:1006B00020F00F00E870E87820F0F000E8704820A3
:1006C0002871BDEEC80A10EE100A00B22080BDEEFF
:1006D000E80A10EE100A00B26080BDEEC90A10EE02
:1006E000100A00B2A080BDEEE90A10EE100A00B2B6
:1006F000E080BDEECA0A10EE100A00B22081BDEE05
:10070000EA0A10EE100A00B26081BDEECB0A10EECC
:10071000100A00B2A081BDEEEB0A10EE100A00B282
:10072000E081BDEECC0A10EE100A00B22082BDEED0
:10073000EC0A10EE100A00B26082BDEECD0A10EE97
:10074000100A00B2A082BDEEED0A10EE100A00B24F
:10075000E082697801AA01A8FFF7E7FD06461EB10D
:10076000314601A806F006FC0EB0BDEC0C8B70BD46
:1007700010B5044600BF00BF00BF00BF002CFDD075
:1007800000BF00BF00BF0029FDD000BF00BF00BFF9
:10079000002AFDD000BF00BF00BF002BFDD000BF6E
:1007A00072B6216002FB0310401E6060A36000204F
:1007B000E06022746161A16162B6002010BD2DE984
:1007C000F04104460D460026002700BF00BF002C64
:1007D000FDD000BF00BF00BF002DFDD000BF1C201A
:1007E00008F0D2FA064616B90020BDE8F08104FBF5
:1007F00005F008F0C9FA07460FB90020F5E72B46C7
:10080000224639463046FFF7B3FF3046EDE710B5D4
:10081000044600BF00BF002CFDD000BF00BF00BFDA
:1008200020680028FCD000BF206808F035FA204678
:1008300008F032FA10BD034600BF00BF00BF00BF82
:10084000002BFDD000BF00BF00BF0029FDD000BFBE
:1008500000BF00BF002AFDD000BF72B61960881823
:10086000401E58609A600020D8601961596162B6D4
:100870000020704770B504460025002600BF00BF69
:10088000002CFDD000BF182008F07EFA05460DB9F7
:10089000002070BD204608F077FA06460EB9002009
:1008A000F7E7224631462846FFF7C5FF2846F0E71E
:1008B00010B5044600BF00BF002CFDD000BF00BF34
:1008C00000BF20680028FCD000BF206808F0E4F9D1
:1008D000204608F0E1F910BD30B5024600230C4671
:1008E00000BF00BF00BF00BF002AFDD000BF00BF97
:1008F00000BF0029FDD000BF906810B94FF0FF3055
:1009000030BD002310E055689069A84201D91068F5
:10091000906114F8010B9569287072B69069401CBB
:10092000906162B6581CC3B2107C9842EBDC72B680
:100930009068401E9060D068401CD06062B6002075
:10094000DEE7024600BF00BF00BF00BF002AFDD0A7
:1009500000BF906810B94FF0FF30704772B6506911
:100960005368984201D9106850615069017050690C
:10097000401C50619068401E9060D068401CD06060
:1009800062B60020E9E770B503460C46002500BFBB
:1009900000BF00BF00BF002BFDD000BF986810B99A
:1009A0004FF0FF3070BD002119E0986810B94FF08A
:1009B000FF3516E072B65E685869B04201D9186812
:1009C0005861605C5E6930705869401C5861986875
:1009D000401E9860D868401CD86062B6491C91429D
:1009E000E3D300BF2846DDE730B5024600230C46BE
:1009F00000BF00BF00BF00BF002AFDD000BF00BF86
:100A000000BF0029FDD000BFD06810B94FF0FF3003
:100A100030BD002310E055685069A84201D9106824
:100A200050615069007804F8010B72B65069401C9F
:100A3000506162B6581CC3B2107C9842EBDC72B6AF
:100A40009068401C9060D068401ED06062B6002064
:100A5000DEE70146002000BF00BF00BF00BF002945
:100A6000FDD000BF72B60A694B689A4201D90A6884
:100A70000A610A6910780A69521C0A618A68521C64
:100A80008A60CA68521ECA6062B6704770B5024674
:100A900000230C4600BF00BF00BF00BF002AFDD0EE
:100AA00000BF00BF00BF0029FDD000BFD06810B953
:100AB0004FF0FF3070BD72B6167CD068401E55698D
:100AC00006FB00501568451BD2E90060801B401CE6
:100AD000B5FBF0F600FB1650156828445061D2E9CA
:100AE0000250401E284490600120D06062B600236E
:100AF00010E055685069A84201D9106850615069EA
:100B0000007804F8010B72B65069401C506162B65F
:100B1000581CC3B2107C9842EBDC72B69068401C43
:100B20009060D068401ED06062B60020C2E710B569
:100B30000146002000BF00BF00BF00BF0029FDD05C
:100B400000BF72B6D1E903321A44521E0B68D31AA1
:100B5000D1E90042121B521CB3FBF2F402FB143227
:100B60000B681A440A610A691078D1E902231A4411
:100B70008A600022CA6062B610BD70B503460C469A
:100B8000154600222E46002100BF00BF002BFDD0DD
:100B900000BF00BF00BF002DFDD000BFD868A0423D
:100BA00002D84FF0FF3070BD5969002206E0586846
:100BB000884200D21968491C501CC2B2187C60439C
:100BC0009042F4DC002209E05868884200D219689B
:100BD000087806F8010B491C501CC2B2187C9042E0
:100BE000F2DC0020DFE710B502460B4600240021AE
:100BF00000BF00BF002AFDD000BF1169002406E03D
:100C00005068884200D21168491C601CC4B29C42E2
:100C1000F6DB087810BD014600BF00BF0029FDD0FB
:100C200000BFC86808B9012070470020FCE70146F2
:100C300000BF00BF0029FDD000BFC86808B901206F
:100C400070470020FCE7014600BF00BF0029FDD02F
:100C500000BF886808B9012070470020FCE7014602
:100C600000BF00BF0029FDD000BF886808B901207F
:100C700070470020FCE7014600BF00BF0029FDD0FF
:100C800000BFC8687047014600BF00BF0029FDD003
:100C900000BFC8687047014600BF00BF0029FDD0F3
:100CA00000BF88687047014600BF00BF0029FDD023
:100CB00000BF88687047014600BF00BF00BF00BF8B
:100CC0000029FDD000BF72B6D1E90020801A0A7C4D
:100CD00090FBF2F088600020C860086848610868EE
:100CE000886162B600207047014600BF00BF00BFA8
:100CF00000BF0029FDD000BF72B6D1E90020801AE4
:100D000088600020C860086808610868486162B6A9
:100D1000002070470022026041607047416800294E
:100D200002DC9FED170A70470268511C01604168A0
:100D30008A4201DB41680160016800EE101AF8EE9A
:100D4000C00A416800EE101AB8EEC01A80EE810A9F
:100D500010EE101A8160816800EE101AE3E701605E
:100D60007047002101607047416070470146086884
:100D70004A68904201DB012070470020FCE7000038
:100D80000000000008B100210160704710B1026846
:100D90000A440260704702468A4201D3012070472C
:100DA0000020FCE79FED460A80ED000A9FED440A13
:100DB00080ED010A9FED420A80ED070A9FED400A8F
:100DC00080ED080A9FED3E0A80ED090A9FED3C0A7E
:100DD00080ED0D0A704790ED030A80ED020A90ED58
:100DE000000AD0ED010A30EE600A80ED030A90EDB2
:100DF000040AD0ED030A20EE200A80ED070A90EDE8
:100E0000080AD0ED050A90ED031A00EE810A80ED84
:100E1000080A90ED030AD0ED020A30EE600AD0ED28
:100E2000060A20EE200A80ED090A90ED080AD0EDAE
:100E30000B0AF1EE600AB4EEE00AF1EE10FA06D801
:100E400090ED0B0AB1EE400A80ED080A0CE090ED3F
:100E5000080AD0ED0B0AB4EEE00AF1EE10FA03DB5B
:100E600090ED0B0A80ED080A90ED070AD0ED080A14
:100E700030EE200AD0ED090A30EE200A80ED0D0A8E
:100E800090ED0D0AD0ED0E0AF1EE600AB4EEE00A24
:100E9000F1EE10FA06D890ED0E0AB1EE400A80EDA0
:100EA0000D0A0CE090ED0D0AD0ED0E0AB4EEE00A4A
:100EB000F1EE10FA03DB90ED0E0A80ED0D0A70479B
:100EC0000000000030B5034605E013F8010B80EA8E
:100ED00002041848025D0800A1F10101F5D1104695
:100EE00030BD70B505460C4600260DB1022C01D868
:100EF000002070BD611E77222846FFF7E3FF0646FB
:100F0000601E285CB04201D10120F2E70020F0E72A
:100F100070B505460C4600260DB1022C00D870BDF8
:100F2000611E77222846FFF7CDFF0646601E2E542D
:100F300000BFF4E7258F000830B5034613B94FF61C
:100F4000FF7030BD09E013F8014B82EA0400C0B223
:100F50001F4D35F8100080EA22220800A1F101019E
:100F6000F1D11046EDE770B505460C4600260DB1EF
:100F7000022C01D8002070BDA11E16480288284608
:100F8000FFF7DAFF0646F1B2A01E285C814206D1C7
:100F9000601E285CB0EB162F01D10120EBE700208A
:100FA000E9E770B505460C4600260DB1022C00D8C5
:100FB00070BDA11E074802882846FFF7BDFF064600
:100FC000A01E2E54310A601E295400BFF0E7000015
:100FD00026900008DA05002040EA01039B0703D0B1
:100FE00009E008C9121F08C0042AFAD203E011F868
:100FF000013B00F8013B521EF9D27047D2B201E02A
:1010000000F8012B491EFBD270470022F6E710B50D
:1010100013460A4604461946FFF7F0FF204610BD66
:101020002DE9FE4F804681EA0300C00F0C46009078
:1010300021F0004123F00045B8EB0200A94105D2A0
:101040004046214690461C460B46024623F000408F
:10105000104347D0270DC7F30A00C3F30A5102908B
:10106000401A019040286BDAC3F3130040F4801B50
:101070000098924620B10023D2EB030A63EB0B0BDE
:1010800001985946C0F14002504600F0CFF906469B
:101090000D4650465946019A00F0E7F910EB08005A
:1010A0006141002487EA115284EAE7731A4340D071
:1010B000009A62B3019A012A4FEA075215DC001B1D
:1010C00061EB02014FF0004202EA0752CDE9004213
:1010D000001C41F5801132462B4600F01EFA03B089
:1010E000BDE8F08F40462146F9E7001B61EB0201A5
:1010F000001C41F5801300185B412018A2F5001771
:1011000047EB030140EAD570B6196D4111E06D0857
:101110004FEA360645EAC0754FEA0752001B61EBFD
:101120000201001C41F5801149084FEA3000001906
:10113000514132462B4603B0BDE8F04F00F0DEB916
:101140000098012240000023D0EB020263EBE07321
:10115000009821464FEAE074B8EB000061EB04010F
:10116000E9E783F000435BE781F0004158E72DE9B0
:10117000FE4F81EA030404F0004421F00041009492
:101180004FF0000B23F0004350EA01045ED052EA16
:1011900003045BD0C3F30A54C1F30A552C44A4F2F0
:1011A000F3340194A0FB0254C1F3130141F4801104
:1011B000C3F3130343F4801301FB024400FB034E0B
:1011C000840A970A44EA815447EA8357A4FB0768D4
:1011D00002958D0A05FB07854FEA932C04FB0C54FE
:1011E0002705029D4FEA065847EA1637B5EB080572
:1011F0006EEB070C870E920E47EA811742EA8312C4
:10120000A7FB0201B6EB0B0164EB00042B0D43EAD4
:101210000C335E1844EB1C50DA465146E7FB0201E2
:10122000C5F313044FEA0B3343EA14534FEA043275
:10123000019C43EA0603A4F10C040294009CCDE94E
:1012400000B400F06AF903B0BDE8F08F0020014659
:10125000F9E72DE9F04D81EA030404F0004B21F099
:10126000004514464FF0000A23F0004150EA050201
:1012700020D054EA01021DD0C5F30A570246C5F337
:101280001303C1F31300C1F30A5640F4801543F46D
:101290008013A7EB0608101BD64608F2FD3873EB47
:1012A000050002D308F1010801E092185B41B8F192
:1012B000000F03DA00200146BDE8F08D00204FF456
:1012C0008011064684460EE0171B73EB050705D315
:1012D000121B63EB050306434CEA010C49084FEA75
:1012E000300092185B4150EA0107EDD152EA030049
:1012F00012D082EA040083EA0501084305D0101BDE
:10130000AB4106D20122002306E000224FF0004349
:1013100002E06FF0010253101AEB06004CEB08518B
:1013200010EB0A0041EB0B01BDE8F04D00F0E6B810
:101330000EB5C10F80EAE0700844CA07002140F2F0
:1013400033438DE80E000A460B4600F0E6F803B082
:1013500000BD0EB540F2334102910021CDE90011EC
:101360000A460B4600F0D9F803B000BDC1F30A529B
:1013700010B5C1F3130140F2FF3341F480119A42DA
:1013800001DA002010BD40F233439A42A2F2334208
:1013900003DC524200F059F810BD904010BD00F03F
:1013A000004230F000400AD0C10D01F56071C0F379
:1013B000160042EA0151C20840071143704700205D
:1013C0000146704730B5041E71F1000404DB4FF094
:1013D0000044404264EB0101141E73F1000405DB7C
:1013E0001C464FF00043524263EB0403994208BF8E
:1013F000904230BD01F0004330B421F0004150EA8A
:10140000010206D00A0DA2F56072C1F31301002A91
:1014100002DC30BC00207047440F44EAC104C10024
:10142000E01830BC00EBC25000F031B8202A04DBD9
:10143000203A00FA02F1002070479140C2F12003E7
:1014400020FA03F3194390407047202A04DB203A26
:1014500021FA02F00021704721FA02F3D040C2F1D4
:1014600020029140084319467047202A06DBCB171B
:10147000203A41FA02F043EAE07306E041FA02F34F
:10148000D040C2F12002914008431946704700291C
:10149000A8BF7047401C490008BF20F001007047FA
:1014A00010B4B0FA80FC00FA0CF050EA010404BF5A
:1014B00010BC704749B1CCF1200421FA04F411FAB0
:1014C0000CF118BF012121430843A3EB0C01CB1DF4
:1014D0004FEA00614FEA102042BF002010BC704765
:1014E00000EBC35010440029A4BF10BC7047401C3F
:1014F000490008BF20F0010010BC704710B5141E51
:1015000073F1000408DA401C41F1000192185B41BC
:101510001A4301D120F0010010BD2DE9F04D924693
:101520009B4611B1B1FA81F202E0B0FA80F22032AA
:101530009046FFF77BFF04460F4640EA0A0041EA67
:101540000B0153465A46084313D0114653EA010093
:1015500019D0C8F140025046FFF777FF05460E4606
:10156000504659464246FFF761FF084305D0012027
:1015700004E020463946BDE8F08D0020054346EAE8
:10158000E0762C4337430A986305E40AA0EB080091
:101590000022FD0A44EA47540A3002D500200146E1
:1015A000E9E7010510196941DDE9084500196941BC
:1015B000BDE8F04DA2E72DE9F04D00231A461B1AB5
:1015C0008A4103DB00200146BDE8F08DC1F30A52D9
:1015D000C1F3130141F480154FF0000BD10702D184
:1015E00000186D41521E0027044640F2FF11384694
:1015F00001EB620A3E468046024600204FF480110D
:10160000FFF723FFC2197141BB1846EB0100B4EB91
:10161000030C75EB000C04D3E41A65EB00051746C8
:101620000E46241908F101006D4180463428E3DD9F
:10163000F91946EB0600091BA84103D24FF0FF320F
:10164000134601E0002213461BEB070046EB0A514C
:10165000BDE8F04DFFF752BF064C074D06E0E068CD
:1016600040F0010394E8070098471034AC42F6D3E9
:10167000FEF78EFD389400085894000870B5C1F349
:101680000A5201F000450024C1F3130140F2FF3378
:1016900041F480119A4201DA002070BD40F23343D8
:1016A0009A42A2F2334203DC5242FFF7CEFE00E040
:1016B00090402C43F1D0404270BD70B58C1810F8AA
:1016C000015B15F0070301D110F8013B2A1106D187
:1016D00010F8012B03E010F8016B01F8016B5B1EA1
:1016E000F9D12B0705D40023521E0DD401F8013B7C
:1016F000FAE710F8013BCB1A921C03E013F8015BE8
:1017000001F8015B521EF9D5A142D8D3002070BD6B
:1017100000B597B05822434901A8FFF75DFC9DF83A
:1017200004005A2810D19DF80D005A280CD19DF8BC
:1017300014005A2808D101203B490870572201A9FA
:101740003A48FFF749FC07E000203749087037495D
:10175000C1F801005A2008703448407A5A2808D04D
:10176000002132484172A0F8071000202F49A1F84B
:1017700005002E48007C5A2809D000212B4801740E
:1017800000202A494881002128488181C1812748B9
:1017900090F823005A2820D00021244880F82310F4
:1017A00000202249A1F8110000212048A0F81310C0
:1017B000A0F81510B7EE000A10EE100A1B49C1F888
:1017C0001700B7EE000A10EE100AC1F81B00B7EEC2
:1017D000000A10EE100AC1F81F00144890F83600F5
:1017E0005A281DD00021114880F8361000200F49DA
:1017F000888400210D48C1840185B7EE000A10EEEF
:10180000100A0A49C1F82A00B7EE000A10EE100AC1
:10181000C1F82E00B7EE000A10EE100AC1F832002F
:1018200017B000BD00000E08F4000020860900205B
:1018300010B5012457220349034800F057F8044625
:10184000204610BD8609002000000E0801461C48F5
:10185000814201D2002070471A48814201D20820FB
:10186000F9E71948814201D21020F4E71748814274
:1018700001D21820EFE71648814201D22020EAE782
:101880001448814201D22820E5E71348814201D261
:101890003020E0E71148814201D23820DBE71048D0
:1018A000814201D24020D6E70E48814201D2482031
:1018B000D1E70D48814201D25020CCE75820CAE739
:1018C000004000080080000800C000080000010877
:1018D00000000208000004080000060800000808D4
:1018E00000000A0800000C0800000E082DE9FC5F4B
:1018F00004460D4690464FF008090120019000264D
:101900004FF0000A00274FF0000B00200090B4F1C8
:10191000006F01D2BDE8FC9F01F0BEFB002001F08A
:1019200011FB264604EB080A3046FFF78FFF83467B
:101930005046FFF78BFF00901648864211D25F4653
:101940000BE00221384601F00FFB8146B9F1080F88
:1019500002D00020019003E0083700988742F0D9B8
:1019600000BFB9F1080F0ED10AE02978204601F036
:101970006DFB082802D00020019003E0641C6D1C60
:101980005445F2D300BF012001F0DCFA01F054FB12
:101990000198BFE70000FF1F10B54FF4A06004F0EE
:1019A0003BFA04F051FA03F0A1FC03F081FC05F0CE
:1019B00019F903F0B7FE05F04DF904F0DBFA00F079
:1019C00015F800F0C7F8074805F0EEFA05F000FC3E
:1019D00005F07AF903F0B0FE03F0A2FD01F0AAFAD7
:1019E00010BD0000A086010000BFFEE700B58BB06F
:1019F0000121084604F0F0FA0121480604F0FCFA3F
:101A000009220B213B4801F09FFC09220C21394897
:101A100001F09AFC4FF4C050029002208DF80C00A7
:101A200002A9344801F048FC14208DF8040002207B
:101A30008DF8050001208DF806008DF8070001A83B
:101A400004F0AEF913208DF8040001208DF8050094
:101A50008DF806008DF8070001A804F0A1F92648CA
:101A600000F096F908A800F0CEFB00208DF82600C3
:101A70008DF827008DF828008DF829008DF82A00B0
:101A800001208DF82B0000208DF822008DF8230016
:101A900008208DF8240003208DF82500ADF82000E3
:101AA00008A9154800F0ADFA00208DF81A008DF84D
:101AB0001B0001208DF81C000020ADF81000ADF8CF
:101AC0001200ADF81400ADF81600ADF818000120B2
:101AD0008DF81D0004A800F077F9012202210648C4
:101AE00000F086FA01221146034800F081FA0BB09B
:101AF00000BD0000000002400064004000B585B059
:101B000002210B4800F0E4F978B10421084800F004
:101B1000EBF80849064800F0CBF86A460021044873
:101B200000F0F9FA684600F0F9FD05B000BD0000CC
:101B3000006400400800003210B50121044800F0A4
:101B4000C7F918B10121024800F0CEF810BD00001D
:101B50000064004000B58BB00121022004F03CFA83
:101B60000121880604F048FA09220C213B4801F0C3
:101B7000EBFB09220D21394801F0E6FB4FF4405000
:101B8000029002208DF80C0002A9344801F094FB69
:101B900040208DF8040001208DF805008DF8060026
:101BA0008DF8070001A804F0FBF83F208DF8040031
:101BB00000208DF8050001208DF806008DF8070043
:101BC00001A804F0EDF8264800F0E2F808A800F0BB
:101BD0001AFB00208DF826008DF827008DF82800CC
:101BE0008DF829008DF82A0001208DF82B000020A7
:101BF0008DF822008DF8230008208DF824000320A2
:101C00008DF82500ADF8200008A9154800F0F9F975
:101C10000E208DF81A0000208DF81B0001208DF891
:101C20001C000020ADF81000ADF81200ADF8140053
:101C3000ADF81600ADF8180001208DF81D0004A8BD
:101C400000F0C2F801220221054800F0D1F901227A
:101C50001146034800F0CCF90BB000BD000402406F
:101C60000068004000B585B00221094800F030F955
:101C700058B10221064800F037F86A4600210448AE
:101C800000F049FA684600F049FD05B000BD0000CB
:101C90000068004010B50121044800F019F918B19E
:101CA0000121024800F020F810BD0000006800404B
:101CB00000220C4B994202D10023836111E0C1F351
:101CC000130201F000730BB1C2600AE001F08063FF
:101CD0000BB1026105E001F000630BB1826000E02E
:101CE000426070477000F030B1F5007F3AD00FDCF1
:101CF000202928D006DC01291CD004291DD0082960
:101D000040D11DE0402921D0B1F5807F3AD126E0B5
:101D1000B1F5004F31D006DCB1F5806F25D0B1F5BB
:101D2000006F2FD124E0B1F5803F12D0B1F5003F14
:101D300028D111E0154A826025E00822C26022E025
:101D40001022C2601FE0082202611CE01022026122
:101D500019E00822426016E01022426013E00422DB
:101D6000426010E0042242600DE0042242600AE07A
:101D7000002282610422426005E000228261042286
:101D8000426000E000BF00BF704700000101010099
:101D900010B504460B48844209D10121480604F0DD
:101DA0003BF900214FF0007004F036F908E0012102
:101DB000880604F031F900214FF0806004F02CF91E
:101DC00010BD00000064004010B50021837A01229C
:101DD00002FA03F13D4A126842F001023B4B1A60DD
:101DE0003A4A1C3212688A43384B1C331A60027B11
:101DF000CAB9364A0C3212688A43344B0C331A6023
:101E00004288C38842EA0343304A4032847A42F827
:101E100034300288838842EA03432C4A4032847A71
:101E200002EBC4025360027B012A19D1274A0C320B
:101E300012680A43254B0C331A604288038842EA31
:101E40000343224A4032847A42F83430C28883887D
:101E500042EA03431D4A4032847A02EBC4025360D3
:101E6000C27A3AB9194A121D12688A43174B1B1DD0
:101E70001A6006E0154A121D12680A43134B1B1D17
:101E80001A60028932B9114A143212688A430F4B20
:101E900014331A600289012A06D10C4A14321268DE
:101EA0000A430A4B14331A60427B012A06D1074ABF
:101EB0001C3212680A43054B1C331A60034A12682D
:101EC00022F00102014B1A6010BD000000660040C4
:101ED00070B504460D46002660692840002871D080
:101EE000B5F5807F5CD010DC082D35D006DC012DE7
:101EF00020D0022D24D0042D72D127E0102D31D016
:101F0000202D35D0402D6BD138E0B5F5004F60D095
:101F100009DCB5F5007F49D0B5F5806F4CD0B5F53B
:101F2000006F5DD14FE0B5F5803F2DD0B5F5003F96
:101F300056D12FE0A0682D4900F01AFD064651E069
:101F4000E068032100F014FD06464BE0E06808213C
:101F500000F00EFD064645E0E068102100F008FDA7
:101F600006463FE02069032100F002FD064639E005
:101F70002069082100F0FCFC064633E020691021AE
:101F800000F0F6FC06462DE06068082100F0F0FC49
:101F9000064627E06068102100F0EAFC064621E0D2
:101FA000A069012100F0E4FC06461BE0A0690221C3
:101FB00000F0DEFC064615E0A069042100F0D8FC24
:101FC00006460FE00FE0A069702100F0D1FC064644
:101FD00008E06068042100F0CBFC064602E0FFE761
:101FE000002600BF00E00026304670BD0101010060
:101FF0001AB143690B43436102E043698B43436178
:10200000704730B5024600200023146824F0020413
:102010001460146844F00104146000E05B1C546810
:1020200004F001041CB94FF6FF74A342F6D15468C2
:1020300004F001040CB900206CE08C79012C04D16F
:10204000146844F08004146003E0146824F08004F1
:102050001460CC79012C04D1146844F0400414605D
:1020600003E0146824F0400414600C7A012C04D1BD
:10207000146844F02004146003E0146824F0200481
:1020800014604C7A012C04D1146844F010041460DC
:1020900003E0146824F0100414608C7A012C04D13D
:1020A000146844F00804146003E0146824F0080481
:1020B0001460CC7A012C04D1146844F00404146038
:1020C00003E0146824F0040414608C78A407CD782D
:1020D00044EA05640D7944EA05444D7944EA05541F
:1020E0000D886D1E2C43D461146824F00104146023
:1020F000002300E05B1C546804F001041CB14FF69F
:10210000FF74A342F6D1546804F001040CB100201E
:1021100000E0012030BD10B500F5D87303EB0113CA
:102120001B6803F004031372137A53B900F5D873D4
:1021300003EB01131B6840F2FF7404EA535313606E
:1021400009E000F5D87303EB01131B686FF06044DE
:1021500004EAD303536000F5D87303EB01131B6843
:1021600003F00203537200F5D87303EB01135B68AD
:1021700003F00F03937200F5D87303EB01135B6850
:102180001B0AD37400F5D87303EB01139B68D37259
:1021900000F5D87303EB01139B681C0A147300F558
:1021A000D87303EB01139B681C0C547300F5D873B0
:1021B00003EB01139B681B0E937300F5D87303EBBD
:1021C0000113DB68D37300F5D87303EB0113DB68ED
:1021D0001C0A147400F5D87303EB0113DB681C0CA4
:1021E000547400F5D87303EB0113DB681B0E937472
:1021F00021B9C36843F02003C36003E0036943F0DF
:102200002003036110BD00218171C171017241720F
:102210008172C1728170C17003210171022141710B
:1022200001210180704710B502460020936803F039
:102230008063B3F1806F00D110E0936803F0006316
:10224000B3F1006F01D1012008E0936803F08053DF
:10225000B3F1805F01D1022000E00420042874D093
:1022600002F5C07303EB00131B6803F0010402F5D1
:10227000C07303EB00131C600B7A7BB94B7A0C889C
:1022800043EA445302F5C07404EB0014246823436A
:1022900002F5C07404EB0014236010E00B7A4C6864
:1022A00043EAC4034C7A234302F5C07404EB0014E0
:1022B0002468234302F5C07404EB001423608B7A76
:1022C00003F00F038B7202F5C07303EB00135B681E
:1022D00023F00F0402F5C07303EB00135C6002F5FA
:1022E000C07303EB00135B688C7A234302F5C07460
:1022F00004EB001463608B7B1C064B7B44EA0344B5
:102300000B7B44EA0323CC7A234302F5C07404EB2D
:102310000014A3608B7C1C064B7C44EA03440B7CBA
:1023200044EA0323CC7B234302F5C07404EB00147E
:10233000E36002F5C07303EB00131B6843F0010474
:1023400002F5C07303EB00131C6010BD00B52DED4A
:102350000C8B81B001F066F918B90020A049888083
:1023600016E09FEDA00AA04880ED000A9F4890ED7E
:10237000100A9D4880ED010A816C88479A4890EDCB
:102380000D0ABDEEC00A10EE100A00B29449888012
:10239000012002F00BFF18B100209149088048800D
:1023A0008F49B1F90400FEF7C3FF41EC190B8C49CA
:1023B000B1F90200FEF7BCFF41EC1D0B9FED8C0B49
:1023C00053EC102BFEF7D3FE41EC1B0B8449B1F903
:1023D00000104842FEF7ACFF41EC1D0B9FED840B53
:1023E00053EC102BFEF7C3FE41EC1C0B53EC1B2BE4
:1023F000FEF716FE41EC1A0B53EC192BFEF710FEFC
:1024000041EC180BFEF7F6FF7B4908607449B1F9FF
:102410000400FEF78DFF41EC190B7149B1F9020080
:10242000FEF786FF41EC1D0B9FED710B53EC102B5B
:10243000FEF79DFE41EC1B0B6949B1F90000FEF768
:1024400077FF41EC1D0B9FED6A0B53EC102BFEF751
:102450008EFE41EC1C0B53EC1B2BFEF7E1FD41EC17
:102460001A0B53EC192BFEF7DBFD41EC180BFEF7B2
:10247000C1FF624908605A49B1F90400FEF758FFEC
:1024800041EC1C0B5649B1F90200FEF751FF41EC3B
:102490001D0B9FED570B53EC102BFEF768FE41EC24
:1024A0001A0B4F49B1F90000FEF742FF41EC1D0B3A
:1024B0009FED4F0B53EC102BFEF759FE41EC1B0B1D
:1024C00053EC1A2BFEF74DFE41EC180B53EC1C2B72
:1024D000FEF7A6FD41EC190BFEF78CFF484908609A
:1024E0003F49B1F90400FEF723FF41EC1C0B3C49C6
:1024F000B1F90200FEF71CFF41EC1D0B9FED3C0BF8
:1025000053EC102BFEF733FE41EC1B0B3449B1F9B1
:1025100000104842FEF70CFF41EC1D0B9FED340B01
:1025200053EC102BFEF723FE41EC180B53EC1B2B46
:10253000FEF717FE41EC190B53EC1C2BFEF770FD58
:1025400041EC1A0BFEF756FF2E4908602E48C06B6F
:1025500000EE100AB8EEC00A274880ED010A2B48A9
:10256000C06B00EE100AB8EEC00A244880ED010AE4
:102570002748C06B00EE100AB8EEC00A204880ED74
:10258000010A2448C06B00EE100AB8EEC00A0846E3
:1025900080ED010A1848816C88471848816C88478B
:1025A0001748816C88471748816C884701F03AF8D2
:1025B000032809D002F005FE30B901F033F80428F1
:1025C00002D001F02FF838B9002003460246014638
:1025D0000090114804F072F901B0BDEC0C8B00BD05
:1025E000100500200000000070020020700B002089
:1025F000333333333333B33FC002002010030020A2
:1026000060030020B0030020600A0020A40A00201C
:10261000E80A00202C0B00200068004010B50220C2
:1026200002F032FD18B1022003F046FF6AE00420F8
:1026300002F02AFD90B101F00DFA0446002C61D0A1
:10264000012C5FD0022C5DD12F4803F0F5FF2F48FD
:1026500003F05CFF042003F02FFF53E0402002F062
:1026600013FD18B1402003F027FF4BE0802002F05B
:102670000BFD90B101F03EF80446002C42D0012C35
:1026800040D0022C3ED1224803F09AFF1F4803F0AD
:102690003DFF802003F010FF34E0102002F0F4FC36
:1026A00058B103F0DFF9044664B3012C2AD0022CA0
:1026B00028D1102003F000FF24E0202002F0E4FCE9
:1026C00088B103F085F90446E4B1012C1AD0022C3C
:1026D00018D1104803F0D4FF0C4803F017FF202056
:1026E00003F0EAFE0EE04FF4807002F0CDFC48B13A
:1026F000094803F0D3FF054803F008FF4FF480704A
:1027000003F0DAFE10BD0000B400002086090020AE
:10271000BB000020DD090020C000002070B52DEDB9
:10272000048B044688480068401C8749086020687C
:10273000B0F5017F4ED007DCA0F2012070B1012876
:1027400020D0022877D131E0A0F20520002855D012
:10275000012871D0B0F5FE7FF4D1ACE0032000F089
:102760007FFE0546FEF70EFB77480068322804D846
:102770002146764800F05AFE03E02146734800F0F7
:102780006DFBB5E0042000F06BFE0546FEF7FAFA9B
:102790006D480068322804D821466D4800F046FE96
:1027A00003E021466A4800F059FBA1E0052000F053
:1027B00057FE0546FEF7E6FA63480068322804D85B
:1027C0002146644800F032FE03E02146614800F0F3
:1027D00045FB8DE0062000F043FE0546FEF7D2FAE9
:1027E00059480068322804D821465B4800F01EFE94
:1027F00003E02146584800F031FB79E0072000F063
:102800002FFE0546FEF7BEFA2146544800F026FB8F
:1028100000F008FF00BB5148806950498968401AA0
:1028200010F57A6F09DA4E48B0F9050000F500504E
:102830004A49886110E05AE00FE0484880694749FA
:102840008968401AB0F57A6F06DD4548B0F9050091
:10285000A0F50050414988614AE0082000F000FEE0
:102860000546FEF78FFA21463E4800F0F7FA364853
:10287000006864281ED83B4880693A498968401A34
:1028800010F57A6F07DA3648B0F9070000F5005006
:10289000344988610EE03348806932498968401ABA
:1028A000B0F57A6F06DD2E48B0F90700A0F50050AC
:1028B0002C4988611CE0022000F0D2FD0546FEF79D
:1028C00061FAE07A0106207B41EA0041607B41EA3F
:1028D0000020A17B084300EE100AB8EEC00ADFED2D
:1028E000220A20EE200A214880ED000A00E000BF05
:1028F00000BF1A4890ED100A10EE101A0846FEF7B5
:102900004EFD41EC190BB0EE490AF0EE690A05F0F4
:102910009BFCB0EE408AF0EE608A51EC180BFEF79B
:1029200025FD05464621FEF736FA18B100F07AFE7D
:10293000032805D1092000F093FD0546FEF722FA91
:10294000BDEC048B70BD000090050020600A0020E3
:10295000A40A0020E80A00202C0B0020700B0020A5
:1029600086090020B40B00200AD723BC9405002060
:102970000246002002EA01030BB1012000E0002022
:102980007047000010B516480068401C14490860E4
:1029900004F074FF05F00EF811480068642801D2B5
:1029A00002F0F0F90E480068B0F5FA6F01D100F0BE
:1029B00009FD00F0F1FE00F093FB00F021FC03F0B4
:1029C0000DFEFFF72BFE0648007800F0030028B943
:1029D00003F0F8FFFFF7BAFC03F0C8FF10BD0000DA
:1029E000F004002010B500202C490860FEF790FE8E
:1029F0002B4803F08BFD002003F05AFF29484FF4C9
:102A00007A61C269904728484FF47A61C269904759
:102A10002448816988472448816988479FED230AB3
:102A2000234880ED000A9FED210A80ED010A012074
:102A300000F016FD0446FEF7A5F9022000F010FD97
:102A40000446FEF79FF9072000F00AFD0446FEF752
:102A500099F9082000F004FD0446FEF793F91548A3
:102A6000C16C88471448C16C88471448C16C8847BA
:102A70001348C16C88471348C16C88471248C16C21
:102A800088471248C16C88471148C16C8847114873
:102A9000C16C88471048C16C884710BDF004002005
:102AA00086090020A4040020C804002000000000C3
:102AB000300A002050040020300100208001002056
:102AC000D00100202002002070020020C00200205F
:102AD0001003002060030020B003002021B1026831
:102AE00042F00102026003E0026822F0010202608B
:102AF00070470000016821F00101016000210160C0
:102B000041608160C1600161212141614A4988427F
:102B100004D13D21484A103A91608CE04649183171
:102B2000884205D14FF47461434A103A916082E0C3
:102B300041493031884205D14FF474113E4A103A70
:102B4000916078E03C494831884205D14FF074618A
:102B5000394A103A91606EE037496031884204D1B9
:102B60003649354A103AD16065E0334978318842B8
:102B700004D13349304A103AD1605CE02E4990319B
:102B8000884204D12F492C4A103AD16053E02A4997
:102B9000A831884205D14FF03D51274A103AD16003
:102BA00049E02949884204D13D21274A083A116069
:102BB00041E025491831884205D14FF47461224A19
:102BC000083A116037E020493031884205D14FF48E
:102BD00074111D4A083A11602DE01B4948318842A2
:102BE00005D14FF07461184A083A116023E0164984
:102BF0006031884204D11149134A121F11601AE052
:102C000011497831884204D10D490F4A121F1160D1
:102C100011E00D499031884204D10A490A4A121F35
:102C2000116008E00849A831884204D14FF03D51B5
:102C3000054A121F11607047106002403D000020DD
:102C4000400F002000003D201064024021B10268C6
:102C500042F48022026003E0026822F480220260D3
:102C6000704722B1036843F40023036003E0036864
:102C700023F400230360016170470146486880B275
:102C80007047014600200A6802F400220AB10120C0
:102C900000E000207047000010B500220268134BCE
:102CA0001A40CC680B6823434C6923438C69234347
:102CB000CC6923430C6A23434C6A23438C6A234325
:102CC0004C6B23438C6B23431A430260426922F00E
:102CD0000702D1E90B3423431A4342610B69436075
:102CE0004B6883608B68C36010BD00003F801CF0A0
:102CF0000021016041608160C160016141618161C9
:102D0000C161016241628162C162016341638163A9
:102D10007047704710B5002107E04AF2104200BF2B
:102D2000131EA2F10102FBD1491C8142F5D310BD53
:102D300010B5012000F034F810B1012000F02AF89D
:102D400010BD10B5022000F02BF810B1022000F0E9
:102D500021F810BD10B5102000F022F880B110202D
:102D600000F012F8102000F015F8012000F078FBB8
:102D70000446FEF707F801200249087000F07CFBCA
:102D800010BD0000B000002001490860704700003D
:102D9000143C01400149086070470000143C0140A8
:102DA000014600200022074B1B6803EA0102054B85
:102DB00014331B680B4013B10AB1012000E000205E
:102DC00070470000003C0140002123498279002A1D
:102DD0003AD00A46126803689A430B461A600A1DE5
:102DE000126803689A430B1D1A60027911440A683D
:102DF00003681A430A60184A0832126803689A4343
:102E0000154B08331A601A1D126803689A43124B57
:102E10000C331A604279102A0ED11A1F1268036807
:102E20001A430D4B08331A601A1D126803681A43BF
:102E3000094B0C331A600DE00749427911440A68C6
:102E400003681A430A6005E0027911440A680368BE
:102E50009A430A6070470000003C014070B50022B0
:102E60000023046844600C7BCD7A44EA05240460A6
:102E700004684568641BC460C4682B4DAC4207DA23
:102E8000846B641C8463C46804F50054C4610EE060
:102E9000C46841F64C55AC4207DD846B641E846304
:102EA000C468A4F50054C46101E0C468C461056845
:102EB000846B05EB4434846004688569641B00EE10
:102EC000104AB8EEC00ADFED190A20EE200A9FED85
:102ED000181AC0EE010A846B4FF4B4756C4300EE0F
:102EE000104AB8EEC00A30EE800A80ED100AC669BA
:102EF000047D651C057500F1200545F82460047DFE
:102F0000062C01D100240475002205E000F1200404
:102F100054F822402344521C062AF7DB062493FB74
:102F2000F4F4C46370BD0000B4E2FFFF0000B443DA
:102F30000000004647F6FF70014908607047000036
:102F40002404004030B10749096841F48061054A12
:102F5000116005E00349096821F48061014A1160AC
:102F600070470000003C024070B504460A46002647
:102F7000082502B909E0012A01D1160205E0022A5A
:102F800001D1160201E04FF4407600F097F80546B3
:102F9000082D28D11548006820F4407013490860B6
:102FA00008460068304308600846006820F0F800D2
:102FB00008600846006844F0020108430B490860B5
:102FC0000846006840F48030086000F077F8054655
:102FD0000648006820F002000449086008460068BE
:102FE00020F0F8000860284670BD0000103C024048
:102FF00008201049096801F48031B1F5803F01D102
:10300000012015E00B49096801F0100109B1052004
:103010000EE00849096801F0EF0109B1062007E058
:103020000449096801F0020109B1072000E0082005
:10303000704700000C3C02400348006840F000402C
:103040000149086070470000103C024030B502465C
:103050000C46082500F032F80546082D17D10D481A
:10306000006820F440700B4908600846006808605A
:103070000846006840F001000860147000F01EF877
:1030800005460448006820F001000249086028460F
:1030900030BD0000103C02400548006800F00040D0
:1030A00028B1044802490C39086003480860704799
:1030B000103C024023016745AB89EFCD08B50820DD
:1030C0000090FFF795FF009002E0FFF791FF00905E
:1030D0009DF800000128F8D09DF8000008BD000010
:1030E00010B52DED048B3A49B1F90200FEF720F935
:1030F00041EC190B9FED370B53EC102BFDF790FFB4
:1031000041EC180BFEF776F9344908613048B0F904
:10311000040000EE100AB8EEC00A084680ED050A69
:103120002B48B0F9060000EE100AB8EEC00A0846B7
:1031300080ED060A2A49B1F90200FEF7F9F841ECE0
:10314000190B9FED280B53EC102BFDF769FF41EC99
:10315000180BFEF74FF9254908612148B0F9040022
:1031600000EE100AB8EEC00A084680ED050A1C48B9
:10317000B0F9060000EE100AB8EEC00A084680ED6D
:10318000060A1B4890ED000A144880ED000A194811
:10319000016988471848D0ED100AF1EE600A20EE68
:1031A000200A0E4880ED010A816C88470B4890ED9B
:1031B0000D0A0E4880ED000A104890ED050A0B48F4
:1031C00080ED010A816C8847BDEC048B10BD0000C6
:1031D000D400002000000000000034403001002036
:1031E000DC000020000000000000334080010020CF
:1031F000300A0020A4040020B40B00206C0800203A
:1032000010B52848B0F90200193000EE100AB8EEE7
:10321000C00A254880ED040A2248B0F9040000EEF7
:10322000100AB8EEC00A204880ED050A1D48B0F922
:10323000060000EE100AB8EEC00A1B4880ED060A30
:103240001A48B0F90200233000EE100AB8EEC00AA6
:10325000174880ED040A1548B0F9040000EE100A82
:10326000B8EEC00A124880ED050A1048B0F9060011
:1032700000EE100AB8EEC00A0D4880ED060A0A48B2
:10328000816C8847084890ED0D0A094880ED000AD6
:10329000084890ED060A064880ED010A816C8847CF
:1032A00010BD0000E4000020D0010020EC00002050
:1032B000200200206C080020F0B50A4600210023FF
:1032C000002400BF3DE0012505FA01F3156805EA79
:1032D00003049C4234D105684F000326BE40B54329
:1032E000056015794E00B5400668354305601579CF
:1032F000012D02D01579022D16D185684F000326C5
:10330000BE40B543856055794E00B540866835436B
:103310008560456801268E40B543456045689679CD
:103320008E40B6B235434560C5684F000326BE40A7
:10333000B543C560D5794E00B540C6683543C56014
:10334000491C1029BFD3F0BDF0B5002300244D0760
:10335000ED0E02FA05F3CE1000F1200555F82650C7
:103360004E07F70E0F26BE40B543CF1000F12006E2
:1033700046F82750CE1000F1200555F8265045EAB2
:103380000304CE1000F1200545F82640F0BD0246AA
:10339000002013690B400BB1012000E000207047B2
:1033A00041837047018370474FF6FF710160002130
:1033B000017141718171C171704742694A40426136
:1033C0007047000000B585B040F204400090002036
:1033D0008DF808008DF8090008208DF80A000020FB
:1033E0008DF80B0001218DF80C1002218DF80D10C5
:1033F00003218DF80E1004218DF80F1005218DF892
:10340000101006218DF8111007218DF81210694651
:103410000248FEF708FF05B000BD00000064004050
:103420000148006870470000F80000200A7BCB7A52
:1034300042EA032282618269826082694260026993
:10344000521C02617047000001480078704700007C
:10345000160500200148007870470000180500207C
:1034600001460B2903D2034800EB8100704700207E
:10347000FCE7000098050020324890ED030A32482E
:1034800080ED040A2F4890ED040AB1EE400A2E4860
:1034900080ED050A2B4890ED050A2B4880ED060AC1
:1034A0002A4890ED000A2A4880ED000A294890ED4C
:1034B000000A264880ED000A90ED000A2448D0ED6D
:1034C000000A30EE600ADFED240AB4EEE00AF1EE05
:1034D00010FA05DB21480068401E2049086013E00F
:1034E0001A4890ED000A1A48D0ED000A30EE600A42
:1034F000DFED1B0AB4EEE00AF1EE10FA04D817482B
:103500000068401C15490860144800684FF4B47105
:10351000484300EE100AB8EEC00A0C48D0ED000A8D
:1035200030EE200A0F4880ED000A0A4890ED010AAB
:103530000D4880ED000A074890ED020A0B4880ED27
:10354000000A7047180800206C0800207000002056
:103550007C0000204C0800200000A54394000020BF
:103560000000A5C3880000208C00002090000020EF
:10357000002108480068A0F5FE41FF3947F6FF70BA
:10358000044A106004480078012801D108467047B9
:103590004842FCE7240400401400002010B50170EC
:1035A0000378047D021D1355037DD35C447D125DB9
:1035B00043EA82024270027D521C02F00F028275C1
:1035C0004378847D021D125D43EA02128270037DFE
:1035D000021DD35C447D125D934205D10D4A1268F1
:1035E000521C0C4B1A6002E000220A4B1A60094A76
:1035F0001268282A03D3037D021DD25CC270027DAB
:103600004275027D521C0275027D102A01D10022F2
:10361000027510BD88050020014800787047000041
:10362000170500200148007870470000A104002021
:10363000014602480068084070470000C4050020A9
:103640004FF08040406A7047274890ED000AFAEE3C
:10365000080AB4EEE00AF1EE10FA04D8BAEE080A4D
:1036600080ED000A0DE0204890ED000AF3EE030A19
:10367000B4EEE00AF1EE10FA03DBB3EE030A80EDDC
:10368000000A194890ED010A1848D0ED010A9FED93
:10369000181A70EEC10AB4EEE00AF1EE10FA09D879
:1036A00090ED010ADFED120A30EE600A0E4880ED5F
:1036B000010A17E00C4890ED010A0C48D0ED010A10
:1036C0009FED0B1A70EE810AB4EEE00AF1EE10FAEB
:1036D00008DB90ED010ADFED060A30EE200A024811
:1036E00080ED010A70470000300A0020D001002060
:1036F0000000704210B5802001F058FD20B94FF451
:10370000807001F053FD08B1002010BD1B48016816
:103710000068401C194A10601948006881420FD2A5
:10372000184800681849096808441749086017488C
:103730000068174909680844154908600120E4E752
:10374000114800680E490968B0FBF1F000B2114958
:1037500048800F4800680A490968B0FBF1F000B2E0
:103760000C4908805A200871002007490860084960
:103770000860024908600220C7E70000FC00002042
:1037800000010020B40B002004010020700B002079
:1037900008010020BB00002010B52DED068BFFF7BF
:1037A00041FF06281CD2DFE800F003481C88898A04
:1037B0009FED940A944880ED000A94480169884777
:1037C0009348D0ED100AF1EE600A20EE200A8E48F0
:1037D00080ED010A8F4890ED000A8F4880ED000AC5
:1037E0000BE18E480078012814D100208B49087025
:1037F00001208B490870884890ED000A894880EDC7
:10380000010A854890ED000A864880ED010A0020F3
:1038100085490860834890ED010A7B4880ED000AE5
:103820007C4890ED000A784880ED010A7F4890EDD1
:10383000000A794880ED000ADFE07B480068401C00
:1038400079490860084600687949884212D275486B
:1038500090ED010A6C4880ED000A6E4890ED000A78
:10386000694880ED010A714890ED000A6A4880EDD0
:10387000000A21E06A48007801280BD1002068493D
:103880000870012065490870634890ED000A65489A
:1038900080ED010A634890ED010A5B4880ED000A63
:1038A000624890ED000A584880ED010A594890EDB1
:1038B000000A594880ED000A9FE09EE09DE05D48C7
:1038C00000685D490968884267D95C48006801283A
:1038D00009DB5A480068162805DA58480068401C79
:1038E000564908604EE055480068162803D1182054
:1038F0005249086046E051480068182809DB4F48E3
:103900000068282805DA4D480068801C4B4908608B
:1039100038E04A480068282803D132204749086027
:1039200030E046480068322809DB444800687828BF
:1039300005DA424800680A304049086022E03F4802
:103940000068782803D1C8203C4908601AE03B4849
:103950000068C82803D1FA203849086012E03748C7
:103960000068FA2804D140F24D103449086009E09B
:103970003248006840F24D11884203D14FF4FA708A
:103980002E4908602D48006844F6206191FBF0F054
:103990002849096808442849086026480068FDF756
:1039A000D8FC41EC1A0B9FED260B53EC102BFDF7C6
:1039B00050FC41EC190BFDF71DFD08EE100AB0EEAE
:1039C000481A1E4890ED000AF8EEC00A9FED1E0A44
:1039D00005F010FA0C4880ED000A90ED000A1B4833
:1039E00080ED000A0B4890ED000A074880ED010ABF
:1039F00090ED010A164880ED000A00BFBDEC068B71
:103A000010BD000000000000D0010020C80400200C
:103A1000700B0020940500200C05002005050020F7
:103A200004050020300A002008050020880000203E
:103A3000A0860100F0040020F8040020F404002017
:103A40000000000000408F4000007042FC04002095
:103A50000005002000B585B000200290039004907E
:103A60002F49088048808880022001F09FFB10B118
:103A7000002005B000BD2B4801880088401C294A61
:103A8000108029480088814221DA0DF1120004A932
:103A9000031F03AACDE90010891F02A801F0A8FEA8
:103AA000BDF90E0021490968084420490860BDF9A4
:103AB00010001F49096808441D490860BDF912003B
:103AC0001C49096808441B4908600120D1E71748D0
:103AD00000681549098890FBF1F000B2164908808A
:103AE000134800681049098890FBF1F000B21249B0
:103AF0004880104800680C49098890FBF1F000B23A
:103B00000D4988805A2088710020084908600849BA
:103B1000086008490860034908800220A9E70000FE
:103B2000CD0000200C0100200E010020100100201B
:103B30001401002018010020B40000201CB5012150
:103B4000022002F049FA1020009001208DF80400B4
:103B500000208DF8060003208DF805006946044812
:103B6000FFF7AAFB10210248FFF71AFC1CBD00005A
:103B70000004024008B50020009001236A460A2193
:103B80003C2001F019FE40B99DF80000482809D0FA
:103B900015A003F023FFFF2008BD16A003F01EFFB1
:103BA000FF20F9E7702200213C2000F01FFB0520D8
:103BB000FFF7B0F8A02201213C2000F017FB052000
:103BC000FFF7A8F8002202213C2000F00FFB06209E
:103BD000FFF7A0F8182200213C2000F007FB062088
:103BE000FFF798F80020D7E76572726F72203241B4
:103BF0000D0A00006572726F722032420D0A0000D9
:103C000010B504460623224603213C2001F0D4FDD2
:103C100010BD00002DE9F04104460D461646164839
:103C2000FFF7EEFF144B0E3B5B7C134F0E3F3F7CC8
:103C300043EA07231AB2104B0E3BDB7B0E4F0E3FBD
:103C4000BF7B43EA07235B4219B20B4B0E3BDB7C85
:103C5000094F0E3FBF7C43EA072318B200F070F80B
:103C60000648808A20800548408D28800348B0F8A7
:103C700040003080BDE8F081AE0800203809002007
:103C8000054B9B8A0380044B5B8D0B80024BB3F882
:103C90004030138070470000380900203EB50446CC
:103CA0006A4601A902A8FFF7B5FF2148B0F9000054
:103CB000BDF90810081A00EE100AF8EEC00A1C48F8
:103CC000D0F8060000EE100A20EE800A194880EDB8
:103CD000000A84ED000A1648B0F90200BDF904108C
:103CE000081A00EE100AF8EEC00A1148D0F80A00CF
:103CF00000EE100A20EE800A0F4880ED000A84EDE5
:103D0000010A0B48B0F90400BDF90010081A00EED2
:103D1000100AF8EEC00A0648D0F80E0000EE100AAD
:103D200020EE800A054880ED000A84ED020A3EBDBF
:103D3000030A0020980000209C000020A000002022
:103D4000F0B503460C4600200021012019E0504D3B
:103D500035F81060451E4E4F27F8156007F116051F
:103D600035F81070451E4A4E163626F8157006F1C5
:103D7000160535F81070451E163626F81570451CC8
:103D8000E8B20A28E3DB424D6B822C85EA870020EB
:103D900005E03F4D35F910502944451CE8B20A288A
:103DA000F7DB0A2591FBF5F52DB2394EB5820021DE
:103DB000002006E0364D163535F910502944451CD3
:103DC000E8B20A28F6DB0A2591FBF5F52EB2304D54
:103DD0006E850021002006E02D4D2C3535F9105060
:103DE0002944451CE8B20A28F6DB0A2591FBF5F5C3
:103DF0002EB2274DA5F84060264DB5F90650244E49
:103E0000B6F91460B54203DD214DAD8A214EF5802F
:103E1000204DB5F908601E4DB5F92A50AE4203DDBC
:103E20001B4D6D8D1B4E35811A4DB5F90A60184D2D
:103E3000B5F94050AE4204DD154DB5F84050154E71
:103E40007581144DB5F90050114EB6F91460B542A4
:103E500003DA0F4DAD8A0F4E35800E4DB5F9026075
:103E60000B4DB5F92A50AE4203DA094D6D8D094E5E
:103E70007580084DB5F90460054DB5F94050AE4266
:103E800004DA034DB5F84050024EB580F0BD000095
:103E9000380900207A09002000BFFEE710B504466B
:103EA00000F0E6F82CB14FF400710D48FFF77AFAF4
:103EB00004E04FF400710A48FFF772FA4FF4807182
:103EC0000748FFF76FFA012000F00CF84FF48071FB
:103ED0000348FFF765FA012000F004F810BD000068
:103EE0000004024010B5002106E0062200BF131EA8
:103EF000A2F10102FBD1491C8142F6D310BD0000A2
:103F00001CB50121022002F067F84FF440700090C8
:103F100001208DF804008DF8060003208DF80500BF
:103F200069460248FFF7C8F91CBD000000040240C2
:103F300070B5002400F086F800251BE04FF4807176
:103F40001148FFF72DFA0120FFF7CCFF4FF48071E5
:103F50000D48FFF727FA6006040E4FF400710A4877
:103F6000FFF715FA08B1601CC4B20120FFF7BAFFD1
:103F7000681CC5B2082DE1DB4FF480710248FFF7E1
:103F80000FFA204670BD0000000402402DE9F04108
:103F900006460F461446984600F07EF8304600F07C
:103FA000F3F800F0B9F8FF2805D11DA003F016FDC5
:103FB000FF20BDE8F081384600F0E6F800F0ACF8EC
:103FC000FF2804D119A003F009FDFF20F1E700F05C
:103FD00063F8711CC8B200F0D7F800F09DF8FF2814
:103FE00004D115A003F0FAFCFF20E2E7002508E069
:103FF000FFF79EFF20700020FFF750FF641C681C35
:10400000C5B2A8F10100A842F2DCFFF791FF2070D1
:104010000120FFF743FF00F05FF80020C9E7000030
:104020006572726F722032460D0A00006572726FFF
:10403000722032470D0A00006572726F722032489A
:104040000D0A00001CB54FF40070009000208DF8A0
:1040500004008DF806008DF8070002208DF8050099
:1040600069460248FFF728F91CBD00000004024021
:104070001CB54FF40070009001208DF804008DF8FD
:10408000060003208DF8050069460248FFF714F981
:104090001CBD00000004024010B5FFF7E9FF4FF41B
:1040A00000710C48FFF77EF94FF480710948FFF763
:1040B00079F90120FFF716FF4FF400710548FFF76B
:1040C0006FF90120FFF70EFF4FF480710148FFF7F1
:1040D00067F910BD0004024010B5FFF7C9FF4FF4A7
:1040E00080710C48FFF75CF94FF400710948FFF745
:1040F00057F90120FFF7F6FE4FF480710548FFF7EE
:1041000051F94FF400710348FFF74CF90120FFF714
:10411000E9FE10BD0004024010B54FF47A744FF46C
:1041200000711548FFF73EF9FFF78CFF0120FFF7FC
:10413000D9FE4FF480711048FFF734F90120FFF7E2
:10414000D1FE0AE0601E80B2041E06D0FFF7C4FF55
:104150000AA003F043FCFF2010BD4FF40071064895
:10416000FFF715F90028EDD14FF480710248FFF7F1
:1041700017F90020F0E70000000402406572726F3A
:10418000722032410D0A000070B50446FFF770FF3F
:104190004FF480711448FFF703F9002521E004F083
:1041A000800028B14FF400710F48FFF7FBF804E0DE
:1041B0004FF400710C48FFF7F3F86006040E01207D
:1041C000FFF790FE4FF480710748FFF7EBF80120EE
:1041D000FFF788FE4FF480710348FFF7E1F8681C91
:1041E000C5B2082DDBDB70BD0004024070B5064689
:1041F0000C461546FFF750FF3046FFF7C5FFFFF7A7
:104200008BFFFF2804D110A003F0E8FBFF2070BD56
:104210002046FFF7B9FFFFF77FFFFF2804D10DA06D
:1042200003F0DCFBFF20F2E72846FFF7ADFFFFF7C6
:1042300073FFFF2804D10AA003F0D0FBFF20E6E7BC
:10424000FFF74AFF0020E2E76572726F7220324288
:104250000D0A00006572726F722032430D0A000071
:104260006572726F722032440D0A000000B52DEDA8
:10427000108B93B0FE4890ED000AD0ED000A20EEBE
:10428000200A8DED080A90ED000AFA48D0ED000AE8
:1042900020EE200AB0EE40FAF54890ED000AF6480C
:1042A000D0ED000A20EE200AF0EE40AAF04890ED92
:1042B000000AF248D0ED000A20EE200A8DED070A30
:1042C000EC4890ED000AD0ED000A20EE200AF0EE56
:1042D00040FA90ED000AE848D0ED000A20EE200AEE
:1042E0008DED060AE34890ED000AE448D0ED000A9F
:1042F00020EE200AB0EE40BADF4890ED000AD0ED83
:10430000000A20EE200AF0EE40BA90ED000ADB48E9
:10431000D0ED000A20EE200A8DED050A90ED000A8E
:10432000D0ED000A20EE200A8DED040AD44890ED6D
:10433000030ADFEDD40A20EE200ADFEDD30A80EE77
:10434000201AD24880ED001ACD4890ED040ADFED26
:10435000CD0A20EE200ADFEDCC0A80EE201ACC48F0
:1043600080ED001AC64890ED050ADFEDC60A20EE82
:10437000200ADFEDC50A80EE201AC64880ED001A3B
:10438000BF4890ED000AC44880ED000ABC4890ED9B
:10439000010AC24880ED000AB94890ED020AC048FF
:1043A00080ED000AB64890ED060ABE4880ED000A8E
:1043B000B34890ED070ABC4880ED000AB04890ED84
:1043C000080ABA4880ED000AFFF73AF9B8490860D0
:1043D00008460068B749096888420CD3B4480068A9
:1043E000B4490968401A00EE100AB8EE400ADFED41
:1043F000B20AC0EE208AAE480068AE490860A648FE
:10440000D0ED000A90ED001A60EE810AA34890ED0D
:10441000001AD0ED001A41EE210AA14890ED001AD1
:10442000D0ED001A41EE210AB0EE600A04F05CFC07
:10443000B0EE408A984890ED000A20EE080A80ED20
:10444000000A964890ED000A20EE080A80ED000A66
:10445000934890ED000A20EE080A80ED000A91488A
:10446000D0ED000A90ED001A60EE810A8E4890EDC2
:10447000001AD0ED001A41EE210A8C4890ED001A86
:10448000D0ED001A41EE210AB0EE600A04F02CFCD7
:10449000B0EE408A834890ED000A20EE080A80EDD5
:1044A000000A814890ED000A20EE080A80ED000A1B
:1044B0007E4890ED000A20EE080A80ED000A794857
:1044C00090ED000AF0EE000A60EE200AB6EE000A57
:1044D00030EE6B1A9DED040A31EE400A20EE800AA0
:1044E0007148D0ED000AB0EE001A60EE811ADDEDE1
:1044F000060A9DED071A70EEC10A01EEA00A6B488C
:10450000D0ED000AB0EE001A60EE810A3BEE2A1AE6
:1045100000EE810A8DED110A624890ED000AF0EE7E
:10452000000A20EE201A9DED060ADDED070A30EEA6
:10453000200A21EE000A5C48D0ED000AB0EE001A15
:1045400020EE811AF6EE000A70EEEF1ADDED040A95
:1045500071EEE00A01EE200A5448D0ED000AB0EEF8
:10456000001A20EE811ADDED050A70EECF0A01EE89
:10457000200A8DED100A4B4890ED000AF0EE000A7B
:1045800020EE200A7BEE6A0A60EE200A464890ED93
:10459000000AB0EE001A20EE011A9DED050A70EE39
:1045A0000F1AB0EE600A01EE210A4048D0ED000A71
:1045B000B0EE001A60EE810AB6EE001A31EE6F1A04
:1045C00031EE6B1AB0EE409A00EE819A9DED110A21
:1045D00060EE000A9DED100A40EE000A10EE901AFF
:1045E0000846FCF7DCFECDE900019DED000B03F071
:1045F0009BFE8DED020B9DED020B51EC100BFCF7B9
:10460000F9FE09EE900AB0EE49AA3BEE6A0AF0EE16
:10461000000A20EE200A8DED0F0A9DED050A3FEEFF
:10462000000AF0EE000A20EE200A8DED0E0A9DED44
:10463000080A30EE6F0A70EE6B0A9DED040A30EE48
:10464000800A8DED0D0AB0EE000A69EE800AB6EE22
:10465000000A30EE6B1A9DED040A31EE400A20EE9E
:10466000800AB0EE4A9AF0EE000A69EE200A25E0D0
:1046700034000020380000203C00002040000020D2
:1046800018080020DB0F494000003443440000209C
:10469000480000204C000020500000205400002062
:1046A000580000205C000020600000206400002012
:1046B0006C000020680000200024F4493BEE6A1AD8
:1046C00000EE810A8DED0C0AB0EE000A29EE801A88
:1046D0009DED060ADDED070A30EE600A21EE000AC4
:1046E000B0EE4A9AF0EE000A29EE201ADDED050A36
:1046F0007FEE200A01EE200A8DED0B0AB0EE000AD3
:1047000029EE800A7AEE8B0A20EE200AB0EE4A9A51
:10471000F0EE000A69EE200AB6EE001A31EE6F1ACA
:1047200031EE6B1A00EE810A8DED0A0AAF48D0ED2A
:10473000000A9DED0D0A60EE800AAD4890ED001A6A
:104740009DED0E0A41EE400AAA4890ED001A9DED3B
:104750000A0A21EE001AA848D0ED001A9DED0B0AB6
:1047600001EEC01A30EE81CAA148D0ED000A9DEDDD
:104770000F0A60EE800AA14890ED001A9DED0D0A27
:1047800041EE400A9C4890ED001A9DED0C0A21EE86
:10479000001A9B48D0ED001A9DED0A0A01EEC01ADE
:1047A00070EE81CA9548D0ED000A9DED0E0A60EECC
:1047B000800A8E4890ED001A9DED0F0A41EE400AE6
:1047C0008F4890ED001A9DED0B0A21EE001A8948E2
:1047D000D0ED001A9DED0C0A01EEC01A30EE81DA20
:1047E000B5EEC0CAF1EE10FA57D0F5EEC0CAF1EE40
:1047F00010FA52D0B5EEC0DAF1EE10FA4DD09FEDBE
:10480000810A6CEE000A804890ED000A00EEA80ACA
:1048100080ED000A9FED7B0A6CEE800A7B4890EDEC
:10482000000A00EEA80A80ED000A9FED760A6DEE00
:10483000000A774890ED000A00EEA80A80ED000A11
:10484000744890ED000AF0EE000A00EE8C0A6E4803
:10485000D0ED000A30EE200A6E4880ED000A6E4866
:1048600090ED000AF0EE000A00EEAC0A6748D0EDC9
:10487000000A30EE200A684880ED000A674890ED93
:10488000000AF0EE000A00EE8D0A6148D0ED000A41
:1048900030EE200A614880ED000A614890ED000A80
:1048A000B1EE400A5B48D0ED000A20EE200A5D48D8
:1048B000D0ED000A584890ED001A00EEC10A5A489F
:1048C00090ED001A5548D0ED001AF0EE400A41EE86
:1048D000610A564890ED000A00EEA80A8DED090A1B
:1048E00090ED000A4B48D0ED000A20EE200A4D481A
:1048F000D0ED000A494890ED001A00EE810A4A48BE
:10490000D0ED000A444890ED001A00EEC10A444878
:10491000D0ED000AF0EE60DA40EE28DA434890ED80
:10492000000A3D48D0ED000A20EE200A3C48D0EDB8
:10493000000A3A4890ED001A00EEC10A3A48D0ED5C
:10494000000A344890ED001A00EE810A3548D0ED97
:10495000000AB0EE60EA00EE28EA344890ED000A62
:104960002E48D0ED000A20EE200A2D48D0ED000A96
:10497000294890ED001A00EE810A2A48D0ED000A7D
:10498000244890ED001A00EEC10A2748D0ED000A35
:10499000F0EE60EA40EE28EADDED090A60EEA00ADA
:1049A0004DEEAD0A4EEE0E0A4EEEAE0AB0EE600AC5
:1049B00004F09AF9B0EE408A9DED090A20EE080A4B
:1049C0001A4880ED000A2DEE880A154880ED000A8D
:1049D0002EEE080A134880ED000A2EEE880A1248CF
:1049E00080ED000A13B0BDEC108B00BD5400002018
:1049F00058000020600000206400002050000020CB
:104A00005C0000200AD7233C280000202C00002056
:104A10003000002044000020480000204C0000200E
:104A2000380000203C00002040000020340000201E
:104A300010B504460C4800F021F8FFF717FC0B48AE
:104A400090ED000A84ED000A094890ED000A84ED1B
:104A5000010A084890ED000A84ED020A064890ED2C
:104A6000000A84ED030A10BD18080020340000205D
:104A7000380000203C0000204000002030B585B008
:104A800004460DF1120004A9031F03AACDE900108A
:104A9000891F02A800F0ACFEBDF808002849088074
:104AA000BDF80A004880BDF80C008880BDF80E00F3
:104AB0000881BDF810004881BDF8120088810025EA
:104AC0001DE0032D0BDA02A830F9150000EE100AE4
:104AD000B8EEC00A04EB850080ED000A0EE002A8E3
:104AE00030F9150000EE100AB8EEC00ADFED150A25
:104AF00080EE201A04EB850080ED001A6D1C062D57
:104B0000DFDB04F11800FFF7C9F894ED060ABDEEEB
:104B1000C00A10EE100A00B20949C88194ED070AD4
:104B2000BDEEC00A10EE100A00B2088294ED080A29
:104B3000BDEEC00A10EE100A00B2488205B030BDCA
:104B4000580800203333034210B52DED0C8B04467A
:104B50008748FFF76DFF864890ED020AF8EE000ADD
:104B600020EE200AD0ED020A20EE200AD0ED030A42
:104B7000B0EE001A60EE810A90ED031A00EEC10A51
:104B8000F7EE000A30EE200A10EE101A0846FCF785
:104B900006FC41EC1C0B764890ED010AF0EE000A91
:104BA00020EE200AD0ED020A20EE200AD0ED000A05
:104BB000B0EE001A60EE810A90ED031A00EE810A51
:104BC00010EE101A0846FCF7EAFB41EC1D0BB0EEA4
:104BD0004C1AF0EE6C1AB0EE4D0AF0EE6D0A03F0CE
:104BE0003BFAB0EE40BAF0EE60BA51EC1B0B81F02C
:104BF000004141EC1A0B9FED5F0B53EC102BFCF7BF
:104C0000B6FA41EC190B9FED5D0B53EC102BFCF742
:104C100020FB41EC180BFCF7EDFB00EE100A84EDD5
:104C2000000A534890ED010AF8EE000A20EE200A2F
:104C3000D0ED030A20EE200AD0ED000AB0EE001AF3
:104C400060EE810A90ED021A00EE810A10EE101A51
:104C50000846FCF7A4FB41EC1C0BB0EE4C0AF0EE4E
:104C60006C0A02F0DDFEB0EE40BAF0EE60BA51EC34
:104C70001B0B81F0004141EC1A0B9FED3E0B53ECF6
:104C8000102BFCF774FA41EC190B9FED3C0B53EC25
:104C9000102BFCF7DEFA41EC180BFCF7ABFB00EE37
:104CA000100A84ED010A324890ED010AF8EE000A7C
:104CB00020EE200AD0ED010A20EE200AD0ED020AF3
:104CC000B0EE001A60EE810A90ED021A00EEC10A01
:104CD000F7EE000A30EE200A10EE101A0846FCF734
:104CE0005EFB41EC1B0B224890ED020AF0EE000A3D
:104CF00020EE200AD0ED030A20EE200AD0ED000AB3
:104D0000B0EE001A60EE810A90ED011A00EE810A01
:104D100010EE101A0846FCF742FB41EC1C0BB0EEFB
:104D20004B1AF0EE6B1AB0EE4C0AF0EE6C0A03F080
:104D300093F9B0EE40AAF0EE60AA9FED0E0B53EC93
:104D4000102B51EC1A0BFCF712FA41EC190B9FEDEA
:104D50000B0B53EC102BFCF77CFA41EC180BFCF717
:104D600049FB00EE100A84ED020ABDEC0C8B10BD6D
:104D70003C08002000000000008066400000006049
:104D8000FB21094010B52DED048B84B001AA02A9C6
:104D900003A8FEF775FFBDF90C0000284BDABDF93A
:104DA0000800002847DABDF90C00BDF9081090FB97
:104DB000F1F42046FCF7BCFA41EC190BB0EE490ABD
:104DC000F0EE690A03F040FAB0EE408AF0EE608A35
:104DD0009FED920B53EC102B51EC180BFCF7F2FAF1
:104DE00014D89FED900A904880ED000A9FED8F0A3D
:104DF0008F4880ED000A9FED8F0A8F4880ED000AF2
:104E00009FED8E0A8E4880ED000A03E19FED8D0A2A
:104E1000854880ED000A9FED8C0A854880ED000AE8
:104E20009FED8A0A844880ED000A9FED890A844834
:104E300080ED000AEEE0BDF90C0000284BDABDF968
:104E40000800002847DDBDF90C00BDF9081090FBF3
:104E5000F1F42046FCF76CFA41EC190BB0EE490A6C
:104E6000F0EE690A03F0F0F9B0EE408AF0EE608AE5
:104E70009FED6A0B53EC102B51EC180BFCF7A2FAC8
:104E800014D89FED740A684880ED000A9FED670A08
:104E9000674880ED000A9FED700A674880ED000AC0
:104EA0009FED6E0A664880ED000AB3E09FED690A47
:104EB0005D4880ED000A9FED6A0A5D4880ED000ABA
:104EC0009FED680A5C4880ED000A9FED670A5C4828
:104ED00080ED000A9EE0BDF90C0000284BDDBDF915
:104EE0000800002847DDBDF90C00BDF9081090FB53
:104EF000F1F42046FCF71CFA41EC190BB0EE490A1C
:104F0000F0EE690A03F0A0F9B0EE408AF0EE608A94
:104F10009FED420B53EC102B51EC180BFCF752FA9F
:104F200014D89FED520A404880ED000A9FED4A0ACE
:104F30003F4880ED000A9FED3D0A3F4880ED000AA2
:104F40009FED380A3E4880ED000A63E09FED480A75
:104F5000354880ED000A9FED430A354880ED000A90
:104F60009FED3F0A344880ED000A9FED410A344826
:104F700080ED000A4EE0BDF90C0000284ADDBDF9C5
:104F80000800002846DABDF90C00BDF9081090FBB6
:104F9000F1F42046FCF7CCF941EC190BB0EE490ACC
:104FA000F0EE690A03F050F9B0EE408AF0EE608A44
:104FB0009FED1A0B53EC102B51EC180BFCF702FA77
:104FC00014D89FED2C0A184880ED000A9FED2A0A9C
:104FD000174880ED000A9FED150A174880ED000A7A
:104FE0009FED260A164880ED000A13E09FED210A86
:104FF0000D4880ED000A9FED150A0D4880ED000A6E
:105000009FED1F0A0C4880ED000A9FED1E0A0C4818
:1050100080ED000A04B0BDEC048B10BD0000000060
:105020000000F03F0AD7A3BB34000020A8C64BBE47
:1050300038000020BE9F7A3F3C0000204ED111BCBA
:10504000400000206F1203BC7B140EBFE17A543F76
:105050006F1203BB0AD7A33B355E7ABFA69B443CC5
:1050600068910DBFE17A54BF99BB16BB52499D3A76
:1050700099BB163B0AD7233B355E7A3F6F12033C40
:10508000295C0FBFBC74933B01460448006808408C
:1050900008B1012070470020FCE70000F800002064
:1050A00010B52DED048B3A49B1F90000FCF740F939
:1050B00041EC190BB0EE490AF0EE690A03F0C4F8AE
:1050C000B0EE408AF0EE608A9FED320B53EC102B6D
:1050D00051EC180BFCF776F953D92D49B1F90200C0
:1050E000FCF726F941EC190BB0EE490AF0EE690A1B
:1050F00003F0AAF8B0EE408AF0EE608A9FED250B2F
:1051000053EC102B51EC180BFCF75CF939D9234800
:1051100090ED050A10EE101A0846FCF740F941EC34
:10512000190BB0EE490AF0EE690A03F08DF8B0EE03
:10513000408AF0EE608A9FED170B53EC102B51EC78
:10514000180BFCF73FF91CD9144890ED040A10EE37
:10515000101A0846FCF723F941EC190BB0EE490A86
:10516000F0EE690A03F070F8B0EE408AF0EE608A63
:105170009FED080B53EC102B51EC180BFCF722F9A8
:1051800003D80120BDEC048B10BD0020FAE700001D
:10519000100500200000000000002440300A00201C
:1051A0000148007870470000F400002000B5024676
:1051B0001046FEF73DFA904201D1012000BD0020CB
:1051C000FCE70020704700002DE9F04704460F4639
:1051D00015461E46DDF820804FF000093048006873
:1051E000401C2F4908604FF47A7090FBF8F0096872
:1051F000B1FBF0F02B49086008460068B0FBF7F1FE
:1052000007FB1109B9FBF5F000283BD126480068DF
:10521000401C25490860002E12DC44B904212348B3
:10522000FEF7BEF802212148FEF7BCF835E0022166
:105230001E48FEF7B5F804211C48FEF7B3F82CE031
:105240004FF47A7090FBF8F06843710090FBF1F036
:1052500015490968B1FBF0F200FB1210E8B944B936
:1052600004211248FEF7A9F802211048FEF79AF827
:1052700013E002210D48FEF7A0F804210B48FEF7C9
:1052800091F80AE000200849086004210748FEF769
:1052900089F802210548FEF785F8BDE8F08700008F
:1052A000C8050020D0050020CC05002000080240E1
:1052B0001CB50121084600F08FFE4FF4807000906D
:1052C00001208DF8040000208DF8060003208DF8E1
:1052D000050069460448FDF7EFFF4FF4807102486E
:1052E000FEF75EF81CBD0000000002401CB5012165
:1052F000042000F071FE0620009001208DF80400CB
:1053000000208DF8060003208DF805006946064848
:10531000FDF7D2FF02210448FEF744F804210248B9
:10532000FEF740F81CBD0000000802402DE9F043E4
:1053300004460D46DDE9076700200021012041E019
:10534000DFF8D8C13CF81080A0F1010CDFF8CC9157
:1053500029F81C8009F1160C3CF81090A0F1010C02
:10536000DFF8B88108F1160828F81C9008F1160C2F
:105370003CF81090A0F1010C08F1160828F81C90D8
:1053800008F1160C3CF81090A0F1010C08F1160879
:1053900028F81C9008F1160C3CF81090A0F1010CB4
:1053A00008F1160828F81C9008F1160C3CF810902B
:1053B000A0F1010C08F1160828F81C9000F1010C6E
:1053C0000CF0FF000A28BBDBDFF850C1ACF812403C
:1053D000ACF82850ACF83E20ACF85430ACF86A6019
:1053E000ACF88070002008E0DFF830C13CF910C054
:1053F000614400F1010C0CF0FF000A28F4DB4FF0CF
:105400000A0C91FBFCFC0FFA8CFCDFF81081A8F869
:1054100014C0002100200AE0DFF800C10CF1160CD6
:105420003CF910C0614400F1010C0CF0FF000A28A7
:10543000F2DB4FF00A0C91FBFCFC0FFA8CF8DFF862
:10544000DCC0ACF82A80002100200AE0DFF8CCC0E4
:105450000CF12C0C3CF910C0614400F1010C0CF073
:10546000FF000A28F2DB4FF00A0C91FBFCFC0FFA5C
:105470008CF8DFF8A8C0ACF84080002100200AE0DA
:10548000DFF898C00CF1420C3CF910C0614400F107
:10549000010C0CF0FF000A28F2DB4FF00A0C91FB24
:1054A000FCFC0FFA8CF8DFF874C0ACF856800021D1
:1054B00000200AE0DFF864C00CF1580C3CF910C081
:1054C000614400F1010C0CF0FF000A28F2DB4FF000
:1054D0000A0C91FBFCFC0FFA8CF8DFF840C0ACF82A
:1054E0006C80002100200AE0DFF830C00CF16E0C67
:1054F0003CF910C0614400F1010C0CF0FF000A28D7
:10550000F2DB4FF00A0C91FBFCFC0FFA8CF8DFF891
:105510000CC0ACF88280BDE8F0830000B408002025
:1055200010B501221921D020FEF760FEFF2804D11A
:105530000CA002F053FAFF2010BD14A002F04EFAA6
:105540000A20FDF7E7FB01223821D020FEF74EFEAE
:10555000FF2804D115A002F041FAFF20ECE700205B
:10556000EAE7000043616E6E6F7420656E61626CE5
:105570006520696E746572727570742073756363EB
:1055800065737366756C6C792E0D0A004D50553637
:10559000303530207365742073616D706C652072D6
:1055A00061746520646F6E652E0A00006572726F0B
:1055B000722031490D0A000008B500200090FEF766
:1055C0009FFCFEF7BBFA01236A467521D020FEF747
:1055D000DDFC40B99DF80000682809D036A002F033
:1055E000FDF9FF2008BD37A002F0F8F9FF20F9E728
:1055F00001226B21D020FEF7F9FDFF2804D134A051
:1056000002F0ECF9FF20EDE703221A21D020FEF78B
:10561000EDFDFF2804D131A002F0E0F9FF20E1E721
:1056200010221B21D020FEF7E1FDFF2804D12EA07F
:1056300002F0D4F9FF20D5E700221C21D020FEF78C
:10564000D5FDFF2804D12BA002F0C8F9FF20C9E73F
:1056500002223721D020FEF7C9FDFF2804D128A05F
:1056600002F0BCF9FF20BDE700223821D020FEF770
:10567000BDFDFF2804D125A002F0B0F9FF20B1E75D
:1056800000226A21D020FEF7B1FDFF2804D11FA01F
:1056900002F0A4F9FF20A5E7FEF76CFAFF2804D179
:1056A0001DA002F09BF9FF209CE74FF4FA70FDF774
:1056B00031FB002096E700006572726F7220314165
:1056C0000D0A00006572726F722031420D0A0000EF
:1056D0006572726F722031430D0A00006572726F3D
:1056E000722031450D0A00006572726F72203146DA
:1056F0000D0A00006572726F722031470D0A0000BA
:105700006572726F722031480D0A00006572726F07
:10571000722031490D0A00006572726F7220314BA0
:105720000D0A000010B502E0C820FDF7F3FAFFF7FC
:1057300043FFFF28F8D010BD00B585B001218803D4
:1057400000F07AFC0121084600F046FC102003908E
:1057500000208DF810008DF8120001208DF8130044
:1057600002208DF8110003A91248FDF7A5FD0421C0
:10577000002000F0ABFE1020009000208DF8040007
:105780000C208DF8050001208DF806006846FDF715
:105790001BFB0A208DF8080002208DF8090000206C
:1057A0008DF80A0001208DF80B0002A800F0F8FA2D
:1057B00005B000BD000002402DE9F04104460D4651
:1057C00016461F463B46324629462046FEF7DEFB7C
:1057D000FF2805D103A002F001F9FF20BDE8F08108
:1057E0000020FBE76572726F7220314A0D0A0000DB
:1057F0002DE9FC4704460D4616461F46DDE90A8999
:105800005448007800287ED00020524908700E23AA
:10581000514A3B21D020FFF7CFFF4F480E30FEF713
:10582000EFF94D4840784C49097840EA012000B230
:105830004A4908804848C0784749897840EA0120A9
:1058400000B247490880444840794349097940EA11
:10585000012000B2434908803F48407A3E49097A16
:1058600040EA012000B2404908803B48C07A3A49EA
:10587000897A40EA012000B23C4908803648407BE2
:105880003549097B40EA012000B2394908800846C1
:10589000B0F900003549B1F90010CDE900103248E7
:1058A000B0F900302F48B0F900202D48B0F90010B1
:1058B0002A48B0F90000FFF739FD2E48808A208081
:1058C0002C48408D28802B48B0F840003080294873
:1058D000B0F8560028490988401A00B23880254897
:1058E000B0F86C0024494988401A00B2A8F80000BA
:1058F0002048B0F8820020498988401A00B2A9F8EF
:10590000000024E0FFE71B48808A20801948408D72
:1059100028801848B0F8400030801648B0F856008B
:1059200015490988401A00B238801248B0F86C0056
:1059300011494988401A00B2A8F800000D48B0F893
:1059400082000D498988401A00B2A9F80000BDE81C
:10595000FC870000B0000020A0080020A400002068
:10596000A6000020A8000020AA000020AC00002013
:10597000AE000020B4080020CD000020F0B5DDE925
:105980000545114EB68A06800F4E768D0E800E4E5E
:10599000B6F8406016800C4EB6F856600B4F3F8844
:1059A000F61B36B21E80084EB6F86C60074F7F8833
:1059B000F61B36B22680044EB6F88260034FBF88CD
:1059C000F61B36B22E80F0BDB4080020CD000020BA
:1059D00010B50220FFF7EAFB08B1002010BD1F49F7
:1059E000B1F900101D4AB2F90620881800EBD071F9
:1059F000491009B21A4A11801849B1F90210174A20
:105A0000B2F90820881800EBD071491009B2144A85
:105A100051801249B1F90410104AB2F90A208818CD
:105A200000EBD071491009B20D4A9180B7EE000A1F
:105A300010EE100A1146C1F80600B7EE000A10EE8B
:105A4000100AC1F80A00B7EE000A10EE100AC1F8F9
:105A50000E005A2088740220C0E700007A09002056
:105A6000DD0900204FF47040054908804880888097
:105A70004FF48050C88008814881022070470000A0
:105A80007A09002000BFFEE770B504460D46FDF719
:105A9000C9FD00287ED0287800F0100040B14FF4F6
:105AA0002570694908804FF448706849088007E00C
:105AB0004FF4FA70644908804FF42F7063490880EE
:105AC000287800F0010090B16148016988475E487C
:105AD000008800EE900AF8EE600A20EE200ABDEE83
